S0190000427574746F6E4170706C69636174696F6E2E737265631B
S11300000C942E000C9438000C9438000C94380096
S11300100C9438000C9438000C9438000C9438007C
S11300200C9438000C9438000C9438000C9438006C
S11300300C9438000C9438000C9438000C9438005C
S11300400C9438000C9438000C9438000C9438004C
S11300500C9438000C9438000C94380011241FBE02
S1130060CFEFD4E0DEBFCDBF0E9486000C948A009F
S11300700C940000E1E6F0E080E88083108297EBC6
S11300809093E50097E09093E6009FE09093E7005B
S11300908093E40094E09093810085B9089540E052
S11300A050E081E090E0ECEEF0E064E0B0E4A0E049
S11300B070E023B1EC0102C0CC0FDD1F2A95E2F7FA
S11300C0219719F441305105A9F023B1EC0102C084
S11300D0CC0FDD1F2A95E2F7CD2B59F741155105B9
S11300E041F72081243019F4B083AC01E2CF60835E
S11300F0AC01DFCF23B1AC0102C0440F551F2A95D8
S1130100E2F7452B71F34A2F572FD3CF0E943A00C1
S10B01100E944F00F894FFCF98
S9030000FC
