S00C00004C6162332E73726563D6
S11300000C9438000C9455000C9455000C94D802B0
S11300100C9455000C9455000C9455000C940C034E
S11300200C9455000C9455000C9455000C945500F8
S11300300C9455000C9455000C9455000C945500E8
S11300400C9455000C9455000C9455000C945500D8
S11300500C9455000C9455000C9455007B008600BC
S113006090009B00A600B100BD00C900D300DF00D2
S113007011241FBECFEFD4E0DEBFCDBF11E0A0E05E
S1130080B1E0EAE9F9E002C005900D92A430B107AD
S1130090D9F723E0A4E0B1E001C01D92A333B20775
S11300A0E1F70E9436030C94CB040C940000E9EFB2
S11300B0F0E0908181E0892780830895E1E6F0E013
S11300C080E88083108287EB8093E50087E080934B
S11300D0E60080EC8093E4008FE08093E7000895CD
S11300E090E0FC01F097EA30F10508F073C0E25D9E
S11300F0FF4F0C94620481E080930C0195E090938F
S1130100110190930D0180931001089510920C0138
S113011081E08093110180930D01109210010895E4
S113012081E080930C01809311019EE090930D0176
S113013080931001089581E080930C018093110154
S11301409BE090930D0180931001089510920C018F
S113015085E0809311018BE080930D0110921001D2
S1130160089581E080930C0194E0909311019BE049
S113017090930D0180931001089581E080930C0108
S113018094E0909311019FE090930D0180931001EE
S1130190089581E080930C018093110180930D01F7
S11301A010921001089581E080930C0195E09093E2
S11301B011019FE090930D0180931001089581E057
S11301C080930C0195E0909311019BE090930D01B5
S11301D08093100108958230910509F466C02CF4CF
S11301E0009769F0019761F108958430910509F44D
S11301F0B2C00CF47BC0059709F4CEC00895ECEEB0
S1130200F0E08081807F90910C01892B8083E1EF65
S1130210F0E08081807F90911101892B8083E6EF4B
S1130220F0E08081807F90910D01892B8083EBEF3A
S1130230F0E08081807F90911001892B8083089564
S1130240ECEEF0E0208190910C0130E1939FC0012D
S11302501124922F9F70892B8083E1EFF0E020819D
S11302609091110130E1939FC0011124922F9F704E
S1130270892B8083E6EFF0E0208190910D0130E13D
S1130280939FC0011124922F9F70892B8083EBEFE1
S1130290F0E020819091100130E1939FC00111247E
S11302A0922F9F70892B80830895EDEEF0E080817A
S11302B0807F90910C01892B8083E2EFF0E08081B4
S11302C0807F90911101892B8083E7EFF0E080819A
S11302D0807F90910D01892B8083ECEFF0E0808189
S11302E0807F90911001892B80830895EDEEF0E0DA
S11302F0208190910C0130E1939FC0011124922F31
S11303009F70892B8083E2EFF0E0208190911101AE
S113031030E1939FC0011124922F9F70892B808319
S1130320E7EFF0E0208190910D0130E1939FC0014F
S11303301124922F9F70892B8083ECEFF0E02081B1
S11303409091100130E1939FC0011124922F9F706E
S1130350892B80830895EEEEF0E08081807F909178
S11303600C01892B8083E3EFF0E08081807F909102
S11303701101892B8083E8EFF0E08081807F9091E8
S11303800D01892B8083EDEFF0E08081807F9091D7
S11303901001892B80830895EEEEF0E02081909186
S11303A00C0130E1939FC0011124922F9F70892B7F
S11303B08083E3EFF0E020819091110130E1939F7D
S11303C0C0011124922F9F70892B8083E8EFF0E005
S11303D0208190910D0130E1939FC0011124922F4F
S11303E09F70892B8083EDEFF0E0208190911001C4
S11303F030E1939FC0011124922F9F70892B808339
S11304000895CF93DF93EB010E947000CE010E9408
S1130410EB00DF91CF9108958F929F92AF92BF929C
S1130420CF92DF92EF92FF924B015C0183E088163A
S11304309104A104B104ACF1D501C40181709927E0
S1130440AA27B078BB2354F40197A109B1098E6F90
S11304509F6FAF6FBF6F0196A11DB11D892B8A2BB2
S11304608B2B21F1C12CD12C76016894C1F80AC0E0
S1130470C501B401A70196010E944304672B682BB0
S1130480692BC1F08FEFC81AD80AE80AF80AC81411
S1130490D904EA04FB0461F761E070E080E090E0D5
S11304A00CC061E070E080E090E007C060E070E0C4
S11304B0CB0103C060E070E0CB01FF90EF90DF90D0
S11304C0CF90BF90AF909F908F9008958F929F92FE
S11304D0AF92BF92CF92DF92EF92FF92CF93DF93CE
S11304E04B015C01EA0124E630E040E050E00E9468
S11304F043040F2EFAE0CF2ED12CE12CF12CF02D59
S1130500A70196010E944304BE0180E3820F0E946A
S113051001022196C501B401A70196010E9443047A
S1130520862FBE01805D0E940102DF91CF91FF9072
S1130530EF90DF90CF90BF90AF909F908F900895F1
S11305406091040170910501809106019091070169
S113055043E050E00E9466028091040190910501FD
S1130560A0910601B09107010196A11DB11D8093D0
S1130570040190930501A0930601B0930701089527
S1130580EC01C12CD12C7601C394C701B6010E94A1
S11305900C02672B682B692B29F0AE01C701B60149
S11305A00E9466028FEFC81AD80AE80AF80AEDCF4B
S11305B01F920F920FB60F9211242F933F934F93D4
S11305C05F936F937F938F939F93AF93BF93EF93B7
S11305D0FF9323B181E090E002C0880F991F2A9510
S11305E0E2F7019741F461E070E080EA92E00E9452
S11305F068030E942104FF91EF91BF91AF919F91F5
S11306008F917F916F915F914F913F912F910F90B7
S11306100FBE0F901F9018951F920F920FB60F9256
S113062011242F933F934F935F936F937F938F93F3
S11306309F93AF93BF93EF93FF9361E070E087E5DF
S113064090E00E9468030E942104FF91EF91BF9102
S1130650AF919F918F917F916F915F914F913F9156
S11306602F910F900FBE0F901F9018950E945E005F
S113067060E070E080EA92E00E94680360E070E06D
S113068087E590E00E94680380E090E00E94C00249
S1130690CF93DF9300D0CDB7DEB79A83898380915F
S11306A000019091010106960E948A04892B59F455
S11306B089819A81909301018093000161E070E047
S11306C006960E94AA040F900F90DF91CF9108958F
S11306D0CF93DF9300D0CDB7DEB7F8942091080113
S11306E030910901232B89F52CEE31E030938401FC
S11306F02093830129E532E03093F1012093F00146
S113070026EC32E030935E0220935D021092CB021D
S11307101092CA0220E82DBB20936C0025B92DE06D
S11307202093810022E43FE03093890020938800E5
S113073022E020936F00109285001092840021E043
S113074030E0309309012093080120910201309197
S113075003013A832983232BA9F0E981FA81448197
S113076055815093030140930201918380837383E5
S1130770628315821482CF0106960E948A0401972F
S1130780C1F501C0FFCF7894A0910001B09101019F
S1130790ED91FC91119712968D919C911397099567
S11307A0F894E0910001F091010115821482809186
S11307B0020190910301009729F4F0930301E0935F
S11307C0020106C095838483F0930301E093020140
S11307D080910A0190910B01009751F0FC01248152
S11307E0358130930B0120930A010E94480301C014
S11307F0FFCFE981FA81369689819A8187599F4F83
S1130800918B808B938B828BE981FA811582148280
S113081080910A0190910B01009729F4F0930B0148
S1130820E0930A0108C0E981FA8195838483F093F7
S11308300B01E0930A0178940F900F90DF91CF9110
S11308400895F89480910A0190910B010097C9F0E2
S1130850FC0124813581E0910001F09101011582B0
S113086014822115310529F4F0930B01E0930A0158
S113087006C035832483F0930B01E0930A010E94A0
S1130880480378940895052E97FB1EF400940E9463
S11308905A0457FD07D00E94680407FC03D04EF4A5
S11308A00C945A0450954095309521953F4F4F4FE5
S11308B05F4F089590958095709561957F4F8F4F08
S11308C09F4F0895EE0FFF1F0590F491E02D0994BA
S11308D0A1E21A2EAA1BBB1BFD010DC0AA1FBB1F40
S11308E0EE1FFF1FA217B307E407F50720F0A21BB2
S11308F0B30BE40BF50B661F771F881F991F1A941F
S113090069F760957095809590959B01AC01BD0148
S1130910CF010895DC012D923D924D925D926D922E
S11309207D928D929D92AD92BD92CD92DD92ED928B
S1130930FD920D931D93CD93DD93FF91EF918DB7B0
S11309408D938EB78D938FB78D93ED93FD938827F9
S113095099270994DC01CB0181309105811D2D90EB
S11309603D904D905D906D907D908D909D90AD905B
S1130970BD90CD90DD90ED90FD900D911D91CD91A8
S1130980DD91ED91FD910D90F894FEBF0FBEEDBF8A
S10D0990ED91FD910994F894FFCF56
S107099A12017F01C2
S9030000FC
