:100000000C9438000C944A000C944A000C944A005A
:100010000C944A000C944A000C944A000C944A0038
:100020000C944A000C944A000C944A000C944A0028
:100030000C944A000C944A000C944A000C944A0018
:100040000C944A000C944A000C944A000C944A0008
:100050000C944A000C944A000C944A0068007D00FD
:100060009000A500BA00CF00E600FD0010012701B6
:1000700011241FBECFEFD4E0DEBFCDBF21E0A0E052
:10008000B1E001C01D92A830B207E1F70E94610300
:100090000C94EC030C940000E1E6F0E080E880832F
:1000A000108287EB8093E50087E08093E60080EC88
:1000B0008093E4008FE08093E700089590E08A3019
:1000C000910508F0DAC0FC01E25DFF4F0C94AA0331
:1000D00081E090E0909301018093000125E030E001
:1000E000309307012093060130930301209302010E
:1000F00090930501809304010895109201011092DC
:10010000000181E090E090930701809306019093B5
:1001100003018093020110920501109204010895D9
:1001200081E090E09093010180930001909307019A
:10013000809306012EE030E030930301209302010A
:100140009093050180930401089581E090E09093DD
:1001500001018093000190930701809306012BE039
:1001600030E03093030120930201909305018093C6
:1001700004010895109201011092000185E090E0C1
:1001800090930701809306018BE090E09093030128
:10019000809302011092050110920401089581E0FC
:1001A00090E0909301018093000124E030E03093CF
:1001B0000701209306012BE030E0309303012093E8
:1001C00002019093050180930401089581E090E07D
:1001D000909301018093000124E030E03093070107
:1001E000209306012FE030E03093030120930201B9
:1001F0009093050180930401089581E090E090932D
:100200000101809300019093070180930601909370
:1002100003018093020110920501109204010895D8
:1002200081E090E0909301018093000125E030E0AF
:1002300030930701209306012FE030E03093030153
:10024000209302019093050180930401089581E0B9
:1002500090E0909301018093000125E030E030931D
:100260000701209306012BE030E030930301209337
:100270000201909305018093040108958330910554
:1002800009F477C034F48130910569F0029761F187
:1002900008958530910509F4D2C00CF48BC00697FF
:1002A00009F4EEC00895ECEEF0E08081807F90913B
:1002B0000001892B8083E1EFF0E08081807F9091C5
:1002C0000601892B8083E6EFF0E08081807F9091AA
:1002D0000201892B8083EBEFF0E08081807F909199
:1002E0000401892B80830895ECEEF0E02081809159
:1002F00000019091010182959295907F9827807FCF
:100300009827922F9F70892B8083E1EFF0E0208166
:10031000809106019091070182959295907F982790
:10032000807F9827922F9F70892B8083E6EFF0E0E3
:100330002081809102019091030182959295907F96
:100340009827807F9827922F9F70892B8083EBEFCF
:10035000F0E02081809104019091050182959295B1
:10036000907F9827807F9827922F9F70892B80837A
:100370000895EDEEF0E08081807F90910001892B5F
:100380008083E2EFF0E08081807F90910601892BED
:100390008083E7EFF0E08081807F90910201892BDC
:1003A0008083ECEFF0E08081807F90910401892BC5
:1003B00080830895EDEEF0E020818091000190911E
:1003C000010182959295907F9827807F9827922FA0
:1003D0009F70892B8083E2EFF0E0208180910601FD
:1003E0009091070182959295907F9827807F98271A
:1003F000922F9F70892B8083E7EFF0E0208180911E
:1004000002019091030182959295907F9827807FB9
:100410009827922F9F70892B8083ECEFF0E020814A
:10042000809104019091050182959295907F982783
:10043000807F9827922F9F70892B80830895EEEEFE
:10044000F0E08081807F90910001892B8083E3EF31
:10045000F0E08081807F90910601892B8083E8EF16
:10046000F0E08081807F90910201892B8083EDEF05
:10047000F0E08081807F90910401892B8083089532
:10048000EEEEF0E0208180910001909101018295D3
:100490009295907F9827807F9827922F9F70892B25
:1004A0008083E3EFF0E020818091060190910701C5
:1004B00082959295907F9827807F9827922F9F70A2
:1004C000892B8083E8EFF0E02081809102019091F8
:1004D000030182959295907F9827807F9827922F8D
:1004E0009F70892B8083EDEFF0E0208180910401E3
:1004F0009091050182959295907F9827807F98270B
:10050000922F9F70892B80830895CF93DF93EB0107
:100510000E945E00CE010E943E01DF91CF910895BE
:100520008F929F92AF92BF92EF92FF920F931F9381
:10053000CF93DF93C6E0D0E00F2EFAE08F2E912C00
:10054000A12CB12CF02D611571058105910591F05B
:10055000A50194010E948B03E22EF32E042F152F88
:10056000862FBE010E9485026E2D7F2D802F912F38
:10057000219749F7DF91CF911F910F91FF90EF9055
:10058000BF90AF909F908F9008958F929F92AF925F
:10059000BF92CF92DF92EF92FF924B015C0185E018
:1005A00088169104A104B104DCF1D501C401817065
:1005B0009927AA27B078BB2354F40197A109B10960
:1005C0008E6F9F6FAF6FBF6F0196A11DB11D892BFD
:1005D0008A2B8B2B51F1C12CD12C76016894C1F858
:1005E0000AC0C501B401A70196010E948B03672BC5
:1005F000682B692BF1F08FEFC81AD80AE80AF80ABD
:10060000A7019601C701B6010E947B036815790511
:100610008A059B0534F361E070E080E090E00CC057
:1006200061E070E080E090E007C060E070E0CB0146
:1006300003C060E070E0CB01FF90EF90DF90CF90BF
:10064000BF90AF909F908F900895CF92DF92EF92DE
:10065000FF92CF93DF93EC01C880D980EA80FB80C2
:10066000C701B6010E94C50261307105810591057F
:1006700021F4C701B6010E94900288819981AA8164
:10068000BB810196A11DB11D88839983AA83BB8379
:10069000DF91CF91FF90EF90DF90CF900895809100
:1006A00084009091850082319A4750F0E9EFF0E0A4
:1006B000908181E0892780831092850010928400C8
:1006C0000895CF93DF9300D000D0CDB7DEB70E945E
:1006D0004C0084E08093810081E090E0A0E0B0E0F5
:1006E00089839A83AB83BC830E944F03CE0101961A
:1006F0000E942503F9CFDB018F939F930E94B003E3
:10070000BF91AF91A29F800D911DA39F900DB29FAD
:10071000900D11240895052E97FB1EF400940E945D
:10072000A20357FD07D00E94BB0307FC03D04EF481
:100730000C94A20350954095309521953F4F4F4F13
:100740005F4F089590958095709561957F4F8F4F7D
:100750009F4F0895EE0FFF1F0590F491E02D09942F
:100760000E94DD03A59F900DB49F900DA49F800D66
:10077000911D11240895A1E21A2EAA1BBB1BFD0195
:100780000DC0AA1FBB1FEE1FFF1FA217B307E40770
:10079000F50720F0A21BB30BE40BF50B661F771FC8
:1007A000881F991F1A9469F76095709580959095A8
:1007B0009B01AC01BD01CF010895A29FB001B39F81
:1007C000C001A39F700D811D1124911DB29F700D5A
:0C07D000811D1124911D0895F894FFCFA5
:00000001FF
