S00C00004C6162312E73726563D8
S11300000C9438000C9455000C9455000C94550035
S11300100C9455000C9455000C9455000C94550008
S11300200C9455000C9455000C9455000C945500F8
S11300300C9455000C9455000C9455000C945500E8
S11300400C9455000C9455000C9455000C945500D8
S11300500C9455000C9455000C94550078008300C2
S11300608D009800A300AE00BA00C600D000DC00EA
S113007011241FBECFEFD4E0DEBFCDBF11E0A0E05E
S1130080B1E0E8E3F4E002C005900D92A030B107BE
S1130090D9F721E0A0E0B1E001C01D92A430B2077D
S11300A0E1F70E940A020C941A020C940000E1E6A3
S11300B0F0E080E88083108297EB9093E50097E06E
S11300C09093E60090EC9093E4009FE09093E70017
S11300D094E09093810085B9089590E0FC01F09735
S11300E0EA30F10508F073C0E25DFF4F0C9414028E
S11300F081E08093000195E09093030190930101C6
S11301008093020108951092000181E0809303011D
S11301108093010110920201089581E0809300010F
S1130120809303019EE0909301018093020108955E
S113013081E080930001809303019BE0909301018F
S11301408093020108951092000185E080930301D9
S11301508BE08093010110920201089581E0809365
S1130160000194E0909303019BE09093010180933C
S11301700201089581E08093000194E090930301CB
S11301809FE09093010180930201089581E08093A0
S113019000018093030180930101109202010895EC
S11301A081E08093000195E0909303019FE0909398
S11301B0010180930201089581E08093000195E09C
S11301C0909303019BE090930101809302010895B1
S11301D08330910509F467C034F48130910569F0E6
S11301E0029761F108958530910509F4B2C00CF4C9
S11301F07BC0069709F4CEC00895ECEEF0E0808150
S1130200807F90910001892B8083E1EFF0E0808171
S1130210807F90910301892B8083E6EFF0E0808159
S1130220807F90910101892B8083EBEFF0E0808146
S1130230807F90910201892B80830895ECEEF0E099
S113024020819091000130E1939FC0011124922FED
S11302509F70892B8083E1EFF0E02081909103016E
S113026030E1939FC0011124922F9F70892B8083CA
S1130270E6EFF0E020819091010130E1939FC0010D
S11302801124922F9F70892B8083EBEFF0E0208163
S11302909091020130E1939FC0011124922F9F702D
S11302A0892B80830895EDEEF0E08081807F90912A
S11302B00001892B8083E2EFF0E08081807F9091C0
S11302C00301892B8083E7EFF0E08081807F9091A8
S11302D00101892B8083ECEFF0E08081807F909195
S11302E00201892B80830895EDEEF0E02081909146
S11302F0000130E1939FC0011124922F9F70892B3C
S11303008083E2EFF0E020819091030130E1939F3C
S1130310C0011124922F9F70892B8083E7EFF0E0B6
S113032020819091010130E1939FC0011124922F0B
S11303309F70892B8083ECEFF0E020819091020183
S113034030E1939FC0011124922F9F70892B8083E9
S11303500895EEEEF0E08081807F90910001892B7A
S11303608083E3EFF0E08081807F90910301892B0B
S11303708083E8EFF0E08081807F90910101892BF8
S11303808083EDEFF0E08081807F90910201892BE2
S113039080830895EEEEF0E020819091000130E139
S11303A0939FC0011124922F9F70892B8083E3EFC8
S11303B0F0E020819091030130E1939FC00111246A
S11303C0922F9F70892B8083E8EFF0E02081909139
S11303D0010130E1939FC0011124922F9F70892B5A
S11303E08083EDEFF0E020819091020130E1939F52
S11303F0C0011124922F9F70892B80830895CF937D
S1130400DF93EB010E946D00CE010E94E800DF91B2
S1130410CF9108950E94570066E070E081E30E9446
S1130420FF0180E090E00895EE0FFF1F0590F49126
S10B0430E02D0994F894FFCFBC
S9030000FC
