:100000000C9438000C944A000C944A000C944A005A
:100010000C944A000C944A000C944A000C944A0038
:100020000C944A000C944A000C944A000C944A0028
:100030000C944A000C944A000C944A000C944A0018
:100040000C944A000C944A000C944A000C944A0008
:100050000C944A000C944A000C944A006C008100F5
:100060009400A900BE00D300EA00010114012B0195
:1000700011241FBECFEFD4E0DEBFCDBF21E0A0E052
:10008000B1E001C01D92AA30B207E1F70E94A503BA
:100090000C942F040C940000E1E6F0E080E88083EB
:1000A000108297EB9093E50097E09093E60090EC38
:1000B0009093E4009FE09093E70094E09093810098
:1000C00085B9089590E08A30910508F0DAC0FC0106
:1000D000E25DFF4F0C94ED0381E090E0909303010B
:1000E0008093020125E030E030930901209308015C
:1000F000309305012093040190930701809306013A
:100100000895109203011092020181E090E0909313
:1001100009018093080190930501809304011092D6
:10012000070110920601089581E090E09093030189
:100130008093020190930901809308012EE030E042
:1001400030930501209304019093070180930601E9
:10015000089581E090E090930301809302019093D1
:100160000901809308012BE030E0309305012093D2
:1001700004019093070180930601089510920301F2
:100180001092020185E090E09093090180930801AC
:100190008BE090E090930501809304011092070199
:1001A00010920601089581E090E0909303018093FE
:1001B000020124E030E030930901209308012BE094
:1001C00030E0309305012093040190930701809360
:1001D0000601089581E090E090930301809302016D
:1001E00024E030E030930901209308012FE030E053
:1001F0003093050120930401909307018093060139
:10020000089581E090E09093030180930201909320
:1002100009018093080190930501809304011092D5
:10022000070110920601089581E090E09093030188
:100230008093020125E030E030930901209308010A
:100240002FE030E0309305012093040190930701E3
:1002500080930601089581E090E0909303018093DC
:10026000020125E030E030930901209308012BE0E2
:1002700030E03093050120930401909307018093AF
:10028000060108958330910509F477C034F4813074
:10029000910569F0029761F108958530910509F49F
:1002A000D2C00CF48BC0069709F4EEC00895ECEEB2
:1002B000F0E08081807F90910201892B8083E1EFC3
:1002C000F0E08081807F90910801892B8083E6EFA8
:1002D000F0E08081807F90910401892B8083EBEF97
:1002E000F0E08081807F90910601892B80830895C2
:1002F000ECEEF0E020818091020190910301829563
:100300009295907F9827807F9827922F9F70892BB6
:100310008083E1EFF0E02081809108019091090154
:1003200082959295907F9827807F9827922F9F7033
:10033000892B8083E6EFF0E0208180910401909189
:10034000050182959295907F9827807F9827922F1C
:100350009F70892B8083EBEFF0E020818091060174
:100360009091070182959295907F9827807F98279A
:10037000922F9F70892B80830895EDEEF0E08081AD
:10038000807F90910201892B8083E2EFF0E08081F1
:10039000807F90910801892B8083E7EFF0E08081D6
:1003A000807F90910401892B8083ECEFF0E08081C5
:1003B000807F90910601892B80830895EDEEF0E017
:1003C0002081809102019091030182959295907F06
:1003D0009827807F9827922F9F70892B8083E2EF48
:1003E000F0E0208180910801909109018295929519
:1003F000907F9827807F9827922F9F70892B8083EA
:10040000E7EFF0E020818091040190910501829551
:100410009295907F9827807F9827922F9F70892BA5
:100420008083ECEFF0E0208180910601909107013C
:1004300082959295907F9827807F9827922F9F7022
:10044000892B80830895EEEEF0E08081807F90918B
:100450000201892B8083E3EFF0E08081807F90911F
:100460000801892B8083E8EFF0E08081807F909104
:100470000401892B8083EDEFF0E08081807F9091F3
:100480000601892B80830895EEEEF0E020818091B3
:1004900002019091030182959295907F9827807F29
:1004A0009827922F9F70892B8083E3EFF0E02081C3
:1004B000809108019091090182959295907F9827EB
:1004C000807F9827922F9F70892B8083E8EFF0E040
:1004D0002081809104019091050182959295907FF1
:1004E0009827807F9827922F9F70892B8083EDEF2C
:1004F000F0E020818091060190910701829592950C
:10050000907F9827807F9827922F9F70892B8083D8
:100510000895CF93DF93EB010E946200CE010E9409
:100520004201DF91CF9108958F929F92AF92BF9237
:10053000EF92FF920F931F93CF93DF93C6E0D0E02B
:100540000F2EFAE08F2E912CA12CB12CF02D6115DD
:1005500071058105910591F0A50194010E94CE03DA
:10056000E22EF32E042F152F862FBE010E94890242
:100570006E2D7F2D802F912F219749F7DF91CF91FD
:100580001F910F91FF90EF90BF90AF909F908F9031
:1005900008958F929F92AF92BF92CF92DF92EF9287
:1005A000FF924B015C0185E088169104A104B1041F
:1005B000DCF1D501C40181709927AA27B078BB234B
:1005C00054F40197A109B1098E6F9F6FAF6FBF6F90
:1005D0000196A11DB11D892B8A2B8B2B51F1C12CAA
:1005E000D12C76016894C1F80AC0C501B401A701F5
:1005F00096010E94CE03672B682B692BF1F08FEFD9
:10060000C81AD80AE80AF80AA7019601C701B60174
:100610000E94BE03681579058A059B0534F361E0E5
:1006200070E080E090E00CC061E070E080E090E07D
:1006300007C060E070E0CB0103C060E070E0CB0178
:10064000FF90EF90DF90CF90BF90AF909F908F90F2
:100650000895CF92DF92EF92FF92CF93DF93EC0158
:10066000C880D980EA80FB80C701B6010E94C90218
:10067000613071058105910521F4C701B6010E9421
:10068000940288819981AA81BB810196A11DB11D27
:1006900088839983AA83BB83DF91CF91FF90EF90EA
:1006A000DF90CF90089580918400909185008C3BDD
:1006B0009A4750F0E9EFF0E0908181E0892780834C
:1006C0001092850010928400089523B181E090E09B
:1006D00002C0880F991F2A95E2F7892BA9F480910F
:1006E000000190910101019779F41092010110929B
:1006F000000123B181E090E002C0880F991F2A9584
:10070000E2F7019709F510C023B181E090E002C043
:10071000880F991F2A95E2F70197B1F480910001A3
:1007200090910101892B81F48091FE00813019F4B0
:100730001092FE0003C081E08093FE0081E090E013
:1007400090930101809300010895CF93DF9300D02F
:1007500000D0CDB7DEB70E944C0088EA91E6A0E059
:10076000B0E089839A83AB83BC830E945303CE019C
:1007700001960E9429030E946503F7CFDB018F9346
:100780009F930E94F303BF91AF91A29F800D911D93
:10079000A39F900DB29F900D11240895052E97FBF5
:1007A0001EF400940E94E50357FD07D00E94FE034B
:1007B00007FC03D04EF40C94E5035095409530951A
:1007C00021953F4F4F4F5F4F0895909580957095BD
:1007D00061957F4F8F4F9F4F0895EE0FFF1F05903C
:1007E000F491E02D09940E942004A59F900DB49FE0
:1007F000900DA49F800D911D11240895A1E21A2E41
:10080000AA1BBB1BFD010DC0AA1FBB1FEE1FFF1FB4
:10081000A217B307E407F50720F0A21BB30BE40B04
:10082000F50B661F771F881F991F1A9469F760954B
:100830007095809590959B01AC01BD01CF01089505
:10084000A29FB001B39FC001A39F700D811D112411
:10085000911DB29F700D811D1124911D0895F89472
:02086000FFCFC8
:00000001FF
