:100000000C9438000C94C0040C942C050C949805A6
:100010000C9404060C9470060C9455000C94470D37
:100020000C9455000C94F50C0C94DC060C944807C9
:100030000C94B4070C9420080C948C080C94F808C9
:100040000C9464090C94D0090C943C0A0C94A80AF2
:100050000C94140B0C94800B0C94EC0B6200670056
:100060006C00710076007B00800085008A008F00A4
:1000700011241FBECFEFD4E0DEBFCDBF11E0A0E062
:10008000B1E0EAE2F2E202C005900D92A233B107BC
:10009000D9F724E0A2E3B1E001C01D92AD38B20768
:1000A000E1F70E94B0030C9413110C940000CF935D
:1000B00090E0FC01F097EA30F105A8F5E25DFF4F12
:1000C0000C94801021E035E045E0C1E02CC020E038
:1000D00031E041E0C0E027C021E03EE041E0C1E086
:1000E00022C021E03BE041E0C1E01DC020E03BE058
:1000F00045E0C0E018C021E03BE044E0C1E013C0AF
:1001000021E03FE044E0C1E00EC020E031E041E00A
:10011000C1E009C021E03FE045E0C1E004C021E0CA
:100120003BE045E0C1E06230710509F45AC03CF49F
:100130006115710579F06130710531F1DFC064300E
:10014000710509F495C00CF466C06530710509F4B9
:10015000A9C0D4C0ECEEF0E09081907F8C2F892B69
:100160008083E1EFF0E08081807F842B8083E6EF65
:10017000F0E08081807F832B8083EBEFF0E0808153
:10018000807F822B8083BAC0ECEEF0E0508160E18A
:10019000C69FC0011124952F9F70892B8083E1EFAA
:1001A000F0E0508160E1469FC0011124452F4F705F
:1001B000842B8083E6EFF0E0408150E1359FC00161
:1001C0001124342F3F70832B8083EBEFF0E03081DC
:1001D00060E1269FC0011124232F2F70822B808382
:1001E0008DC0EDEEF0E09081907F8C2F892B808385
:1001F000E2EFF0E08081807F842B8083E7EFF0E006
:100200008081807F832B8083ECEFF0E08081807F92
:10021000822B808373C0EDEEF0E0508160E1C69FD9
:10022000C0011124952F9F70892B8083E2EFF0E0AD
:10023000508160E1469FC0011124452F4F70842BEF
:100240008083E7EFF0E0408150E1359FC001112449
:10025000342F3F70832B8083ECEFF0E0308160E13E
:10026000269FC0011124232F2F70822B808346C02C
:10027000EEEEF0E09081907F8C2F892B8083E3EF6E
:10028000F0E08081807F842B8083E8EFF0E0808144
:10029000807F832B8083EDEFF0E08081807F822B55
:1002A00080832CC0EEEEF0E0508160E1C69FC0017B
:1002B0001124952F9F70892B8083E3EFF0E050810C
:1002C00060E1469FC0011124952F9F70892B808388
:1002D000E8EFF0E0408150E1359FC0011124942FF8
:1002E0009F70892B8083EDEFF0E0308160E1269FE5
:1002F000C0011124932F9F70892B8083CF91089583
:100300008F929F92AF92BF92CF92DF92EF92FF9225
:10031000CF93DF934B015C01EA0124E630E040E03B
:1003200050E00E9461100F2EFAE0CF2ED12CE12C6C
:10033000F12CF02DA70196010E946110BE0180E30F
:10034000820F0E9457002196C501B401A7019601B2
:100350000E946110862FBE01805D0E945700DF91D0
:10036000CF91FF90EF90DF90CF90BF90AF909F9094
:100370008F900895E1E6F0E080E88083108287EBBB
:100380008093E50087E08093E60080EC8093E400B2
:100390009FE09093E7008DBB80ED80936C009CE024
:1003A00090936B0085B98CE58EB90895AF92BF929A
:1003B000CF92DF92EF92FF920F931F93CF93DF9331
:1003C000EC015B011E9939C008851985C12CD12C1F
:1003D0000F2EFDECEF2EF3E0FF2EF02D20E030E0AD
:1003E000A90160E070E0CB010E94FC0D650188EC82
:1003F000C80ED11C2DE730E0D5010E9486108B017C
:100400009C01992324F40D5F1F4F2F4F3F4FC901CB
:10041000B801959587957795679595958795779583
:1004200067950F2EF6EDEF2EF1E0FF2EF02D8E01E9
:1004300020E030E0A9010E94FC0D1F9939C0088519
:100440001985C12CD12C0F2EF8EDEF2EF3E0FF2EE5
:10045000F02D20E030E0A90160E070E0CB010E94C7
:10046000FC0D650188ECC80ED11C2DE730E0D501EC
:100470000E9486108B019C01992324F40D5F1F4F6D
:100480002F4F3F4FC901B80195958795779567958F
:1004900095958795779567950F2EF6EDEF2EF1E000
:1004A000FF2EF02D8E0120E030E0A9010E94FC0D0E
:1004B000C12CD12C0F2EF2E9EF2EF3E0FF2EF02D00
:1004C0008E0120E030E0A90160E070E0CB010E94E5
:1004D000FC0DDF91CF911F910F91FF90EF90DF9076
:1004E000CF90BF90AF900895CF92DF92EF92FF929E
:1004F0000F931F938C01749B04C09EB180E18927E8
:100500008EB9D8011896ED91FC9119976481758187
:1005100084EF91E00E944D102DE730E0DB010E9456
:1005200086106B017C0199232CF4B3E0CB0ED11C17
:10053000E11CF11CC701B6019595879577956795E4
:100540009595879577956795C12CD12C0F2EF4E75B
:10055000EF2EF2E0FF2EF02D20E030E0A9010E9406
:10056000FC0D1F910F91FF90EF90DF90CF900895B9
:10057000CF93DF93EC01EC81FD814681578164814B
:100580007581072E000C880B990B0E948001EE816B
:10059000FF814681578164817581072E000C880B8D
:1005A000990B0E948001DF91CF910895CF92DF9245
:1005B000EF92FF920F931F93CF93DF93EC011E995D
:1005C00015C00F2EF4EFCF2EDD24D394F02D0F2E77
:1005D000F6EDEF2EF1E0FF2EF02D8C0120E030E063
:1005E000A90160E070E0CB010E94FC0D1F9915C0CD
:1005F0000F2EF4EFCF2EDD24D394F02D0F2EF6ED39
:10060000EF2EF1E0FF2EF02D8E0120E030E0A90169
:1006100060E070E0CB010E94FC0D1C9912C00885BF
:100620001985C12CD12C0F2EF3EEEF2EF3E0FF2E07
:10063000F02D20E030E0A90160E070E0CB010E94E5
:10064000FC0DC12CD12C0F2EF8EBEF2EF2E0FF2E7B
:10065000F02D8E0120E030E0A90160E070E0CB01D8
:100660000E94FC0DDF91CF911F910F91FF90EF90B1
:10067000DF90CF900895CF92DF92EF92FF920F9389
:100680001F93CF93DF93EC01629921C08FE0809399
:10069000F900EC81FD81F987E88784859585892BB0
:1006A000B1F481E090E0958784870C811D81C12C95
:1006B000D12C0F2EF4E7EF2EF2E0FF2EF02D20E0EC
:1006C00030E0A90160E070E0CB010E94FC0D63996D
:1006D00020C01092F900EE81FF81F987E8878485B8
:1006E0009585892BB1F481E090E0958784870E8110
:1006F0001F81C12CD12C0F2EF4E7EF2EF2E0FF2E3C
:10070000F02D20E030E0A90160E070E0CB010E9414
:10071000FC0DDF91CF911F910F91FF90EF90DF9033
:10072000CF900895CF92DF92EF92FF920F931F9395
:10073000C12CD12C0F2EF8EBEF2EF2E0FF2EF02D76
:100740008C0120E030E0A90160E070E0CB010E9464
:10075000FC0D1F910F91FF90EF90DF90CF900895C7
:1007600078940E94BA018FE08093F90041E06BE336
:1007700073E080E091E00E941C1042E066ED72E0C0
:1007800080E091E00E941C1040E050E062E973E0DC
:1007900080E091E00E9436100895FC0124813581AB
:1007A0002336310524F42F5F3F4F3583248308958A
:1007B000FC01248135811216130624F421503109DD
:1007C000358324830895FC0182859385892B59F410
:1007D00084819581918780871582148281E090E0E1
:1007E0009387828708958085918595838483138676
:1007F00012860895CF93DF9300D000D0CDB7DEB737
:100800008DE292E02DE033E0FC01709791838083CC
:10081000409682179307C1F71092FE021092FD02D4
:10082000E8E6F1E085E891E09183808382EA91E057
:10083000968F858FAFEBB1E0B3AFA2AF1D921C9244
:10084000FA83E983E9E6F3E0FC83EB8389819A810B
:1008500006960E94D2108B819C81E981FA81978B48
:10086000868B918F808F8EEA9FE0948F838F158285
:1008700014827D96FA83E983EB81FC81E05AFF4F75
:10088000FC83EB8389819A818C5D9140F9F6E0E0ED
:10089000F2E0118210821582148213821282E1E644
:1008A000F0E080E88083108210928500109284002E
:1008B00084E08093810081E080936F000F900F901F
:1008C0000F900F90DF91CF910895CF93DF9300D0D9
:1008D000CDB7DEB79A83898380912A0190912B014D
:1008E00006960E94D210892B59F489819A8190939F
:1008F0002B0180932A0161E070E006960E94F210BD
:100900000F900F90DF91CF9108950F931F93CF9386
:10091000DF93C0912C01D0912D01AA81BB81E09180
:100920004201F0914301309731F180912E01909175
:100930002F01009701F1109779F04681578160856A
:10094000718516960D911D912D913C911997401B23
:10095000510B620B730B7AF4FC01208131813093CF
:100960002F0120932E01D183C08390932D0180937A
:100970002C010E946504DF91CF911F910F91089582
:100980001F920F920FB60F9211242F933F934F9304
:100990005F936F937F938F939F93AF93BF93EF93E7
:1009A000FF9320913A0130913B0140918400509196
:1009B0008500C901032E000CAA0BBB0BDC01992793
:1009C000882760E070E0842B952BA62BB72B8093B3
:1009D0003C0190933D01A0933E01B0933F01B09B39
:1009E0001BC04091840050918500C9010196092ED9
:1009F000000CAA0BBB0BDC019927882760E070E094
:100A0000842B952BA62BB72B80933C0190933D0113
:100A1000A0933E01B0933F01E091DC01F091DD0134
:100A2000309739F060E070E0809144019091450189
:100A300009950E948504FF91EF91BF91AF919F911D
:100A40008F917F916F915F914F913F912F910F9077
:100A50000FBE0F901F9018951F920F920FB60F9216
:100A600011242F933F934F935F936F937F938F93B3
:100A70009F93AF93BF93EF93FF9320913A013091EF
:100A80003B014091840050918500C901032E000C68
:100A9000AA0BBB0BDC019927882760E070E0842B50
:100AA000952BA62BB72B80933C0190933D01A093EF
:100AB0003E01B0933F01B09B1BC040918400509118
:100AC0008500C9010196092E000CAA0BBB0BDC01A5
:100AD0009927882760E070E0842B952BA62BB72BF5
:100AE00080933C0190933D01A0933E01B0933F0160
:100AF000E091DE01F091DF01309739F061E070E0C4
:100B0000809146019091470109950E948504FF91CB
:100B1000EF91BF91AF919F918F917F916F915F9175
:100B20004F913F912F910F900FBE0F901F901895EE
:100B30001F920F920FB60F9211242F933F934F9352
:100B40005F936F937F938F939F93AF93BF93EF9335
:100B5000FF9320913A0130913B01409184005091E4
:100B60008500C901032E000CAA0BBB0BDC019927E1
:100B7000882760E070E0842B952BA62BB72B809301
:100B80003C0190933D01A0933E01B0933F01B09B87
:100B90001BC04091840050918500C9010196092E27
:100BA000000CAA0BBB0BDC019927882760E070E0E2
:100BB000842B952BA62BB72B80933C0190933D0162
:100BC000A0933E01B0933F01E091E001F091E1017B
:100BD000309739F062E070E08091480190914901CE
:100BE00009950E948504FF91EF91BF91AF919F916C
:100BF0008F917F916F915F914F913F912F910F90C6
:100C00000FBE0F901F9018951F920F920FB60F9264
:100C100011242F933F934F935F936F937F938F9301
:100C20009F93AF93BF93EF93FF9320913A0130913D
:100C30003B014091840050918500C901032E000CB6
:100C4000AA0BBB0BDC019927882760E070E0842B9E
:100C5000952BA62BB72B80933C0190933D01A0933D
:100C60003E01B0933F01B09B1BC040918400509166
:100C70008500C9010196092E000CAA0BBB0BDC01F3
:100C80009927882760E070E0842B952BA62BB72B43
:100C900080933C0190933D01A0933E01B0933F01AE
:100CA000E091E201F091E301309739F063E070E008
:100CB00080914A0190914B0109950E948504FF9112
:100CC000EF91BF91AF919F918F917F916F915F91C4
:100CD0004F913F912F910F900FBE0F901F9018953D
:100CE0001F920F920FB60F9211242F933F934F93A1
:100CF0005F936F937F938F939F93AF93BF93EF9384
:100D0000FF9320913A0130913B0140918400509132
:100D10008500C901032E000CAA0BBB0BDC0199272F
:100D2000882760E070E0842B952BA62BB72B80934F
:100D30003C0190933D01A0933E01B0933F01B09BD5
:100D40001BC04091840050918500C9010196092E75
:100D5000000CAA0BBB0BDC019927882760E070E030
:100D6000842B952BA62BB72B80933C0190933D01B0
:100D7000A0933E01B0933F01E091E401F091E501C1
:100D8000309739F064E070E080914C0190914D0112
:100D900009950E948504FF91EF91BF91AF919F91BA
:100DA0008F917F916F915F914F913F912F910F9014
:100DB0000FBE0F901F9018951F920F920FB60F92B3
:100DC00011242F933F934F935F936F937F938F9350
:100DD0009F93AF93BF93EF93FF9320913A0130918C
:100DE0003B014091840050918500C901032E000C05
:100DF000AA0BBB0BDC019927882760E070E0842BED
:100E0000952BA62BB72B80933C0190933D01A0938B
:100E10003E01B0933F01B09B1BC0409184005091B4
:100E20008500C9010196092E000CAA0BBB0BDC0141
:100E30009927882760E070E0842B952BA62BB72B91
:100E400080933C0190933D01A0933E01B0933F01FC
:100E5000E091E601F091E701309739F065E070E04C
:100E600080914E0190914F0109950E948504FF9158
:100E7000EF91BF91AF919F918F917F916F915F9112
:100E80004F913F912F910F900FBE0F901F9018958B
:100E90001F920F920FB60F9211242F933F934F93EF
:100EA0005F936F937F938F939F93AF93BF93EF93D2
:100EB000FF9320913A0130913B0140918400509181
:100EC0008500C901032E000CAA0BBB0BDC0199277E
:100ED000882760E070E0842B952BA62BB72B80939E
:100EE0003C0190933D01A0933E01B0933F01B09B24
:100EF0001BC04091840050918500C9010196092EC4
:100F0000000CAA0BBB0BDC019927882760E070E07E
:100F1000842B952BA62BB72B80933C0190933D01FE
:100F2000A0933E01B0933F01E091E801F091E90107
:100F3000309739F066E070E0809150019091510156
:100F400009950E948504FF91EF91BF91AF919F9108
:100F50008F917F916F915F914F913F912F910F9062
:100F60000FBE0F901F9018951F920F920FB60F9201
:100F700011242F933F934F935F936F937F938F939E
:100F80009F93AF93BF93EF93FF9320913A013091DA
:100F90003B014091840050918500C901032E000C53
:100FA000AA0BBB0BDC019927882760E070E0842B3B
:100FB000952BA62BB72B80933C0190933D01A093DA
:100FC0003E01B0933F01B09B1BC040918400509103
:100FD0008500C9010196092E000CAA0BBB0BDC0190
:100FE0009927882760E070E0842B952BA62BB72BE0
:100FF00080933C0190933D01A0933E01B0933F014B
:10100000E091EA01F091EB01309739F067E070E090
:10101000809152019091530109950E948504FF919E
:10102000EF91BF91AF919F918F917F916F915F9160
:101030004F913F912F910F900FBE0F901F901895D9
:101040001F920F920FB60F9211242F933F934F933D
:101050005F936F937F938F939F93AF93BF93EF9320
:10106000FF9320913A0130913B01409184005091CF
:101070008500C901032E000CAA0BBB0BDC019927CC
:10108000882760E070E0842B952BA62BB72B8093EC
:101090003C0190933D01A0933E01B0933F01B09B72
:1010A0001BC04091840050918500C9010196092E12
:1010B000000CAA0BBB0BDC019927882760E070E0CD
:1010C000842B952BA62BB72B80933C0190933D014D
:1010D000A0933E01B0933F01E091EC01F091ED014E
:1010E000309739F068E070E080915401909155019B
:1010F00009950E948504FF91EF91BF91AF919F9157
:101100008F917F916F915F914F913F912F910F90B0
:101110000FBE0F901F9018951F920F920FB60F924F
:1011200011242F933F934F935F936F937F938F93EC
:101130009F93AF93BF93EF93FF9320913A01309128
:101140003B014091840050918500C901032E000CA1
:10115000AA0BBB0BDC019927882760E070E0842B89
:10116000952BA62BB72B80933C0190933D01A09328
:101170003E01B0933F01B09B1BC040918400509151
:101180008500C9010196092E000CAA0BBB0BDC01DE
:101190009927882760E070E0842B952BA62BB72B2E
:1011A00080933C0190933D01A0933E01B0933F0199
:1011B000E091EE01F091EF01309739F069E070E0D5
:1011C000809156019091570109950E948504FF91E5
:1011D000EF91BF91AF919F918F917F916F915F91AF
:1011E0004F913F912F910F900FBE0F901F90189528
:1011F0001F920F920FB60F9211242F933F934F938C
:101200005F936F937F938F939F93AF93BF93EF936E
:10121000FF9320913A0130913B014091840050911D
:101220008500C901032E000CAA0BBB0BDC0199271A
:10123000882760E070E0842B952BA62BB72B80933A
:101240003C0190933D01A0933E01B0933F01B09BC0
:101250001BC04091840050918500C9010196092E60
:10126000000CAA0BBB0BDC019927882760E070E01B
:10127000842B952BA62BB72B80933C0190933D019B
:10128000A0933E01B0933F01E091F001F091F10194
:10129000309739F06AE070E08091580190915901DF
:1012A00009950E948504FF91EF91BF91AF919F91A5
:1012B0008F917F916F915F914F913F912F910F90FF
:1012C0000FBE0F901F9018951F920F920FB60F929E
:1012D00011242F933F934F935F936F937F938F933B
:1012E0009F93AF93BF93EF93FF9320913A01309177
:1012F0003B014091840050918500C901032E000CF0
:10130000AA0BBB0BDC019927882760E070E0842BD7
:10131000952BA62BB72B80933C0190933D01A09376
:101320003E01B0933F01B09B1BC04091840050919F
:101330008500C9010196092E000CAA0BBB0BDC012C
:101340009927882760E070E0842B952BA62BB72B7C
:1013500080933C0190933D01A0933E01B0933F01E7
:10136000E091F201F091F301309739F06BE070E019
:1013700080915A0190915B0109950E948504FF912B
:10138000EF91BF91AF919F918F917F916F915F91FD
:101390004F913F912F910F900FBE0F901F90189576
:1013A0001F920F920FB60F9211242F933F934F93DA
:1013B0005F936F937F938F939F93AF93BF93EF93BD
:1013C000FF9320913A0130913B014091840050916C
:1013D0008500C901032E000CAA0BBB0BDC01992769
:1013E000882760E070E0842B952BA62BB72B809389
:1013F0003C0190933D01A0933E01B0933F01B09B0F
:101400001BC04091840050918500C9010196092EAE
:10141000000CAA0BBB0BDC019927882760E070E069
:10142000842B952BA62BB72B80933C0190933D01E9
:10143000A0933E01B0933F01E091F401F091F501DA
:10144000309739F06CE070E080915C0190915D0123
:1014500009950E948504FF91EF91BF91AF919F91F3
:101460008F917F916F915F914F913F912F910F904D
:101470000FBE0F901F9018951F920F920FB60F92EC
:1014800011242F933F934F935F936F937F938F9389
:101490009F93AF93BF93EF93FF9320913A013091C5
:1014A0003B014091840050918500C901032E000C3E
:1014B000AA0BBB0BDC019927882760E070E0842B26
:1014C000952BA62BB72B80933C0190933D01A093C5
:1014D0003E01B0933F01B09B1BC0409184005091EE
:1014E0008500C9010196092E000CAA0BBB0BDC017B
:1014F0009927882760E070E0842B952BA62BB72BCB
:1015000080933C0190933D01A0933E01B0933F0135
:10151000E091F601F091F701309739F06DE070E05D
:1015200080915E0190915F0109950E948504FF9171
:10153000EF91BF91AF919F918F917F916F915F914B
:101540004F913F912F910F900FBE0F901F901895C4
:101550001F920F920FB60F9211242F933F934F9328
:101560005F936F937F938F939F93AF93BF93EF930B
:10157000FF9320913A0130913B01409184005091BA
:101580008500C901032E000CAA0BBB0BDC019927B7
:10159000882760E070E0842B952BA62BB72B8093D7
:1015A0003C0190933D01A0933E01B0933F01B09B5D
:1015B0001BC04091840050918500C9010196092EFD
:1015C000000CAA0BBB0BDC019927882760E070E0B8
:1015D000842B952BA62BB72B80933C0190933D0138
:1015E000A0933E01B0933F01E091F801F091F90121
:1015F000309739F06EE070E0809160019091610168
:1016000009950E948504FF91EF91BF91AF919F9141
:101610008F917F916F915F914F913F912F910F909B
:101620000FBE0F901F9018951F920F920FB60F923A
:1016300011242F933F934F935F936F937F938F93D7
:101640009F93AF93BF93EF93FF9320913A01309113
:101650003B014091840050918500C901032E000C8C
:10166000AA0BBB0BDC019927882760E070E0842B74
:10167000952BA62BB72B80933C0190933D01A09313
:101680003E01B0933F01B09B1BC04091840050913C
:101690008500C9010196092E000CAA0BBB0BDC01C9
:1016A0009927882760E070E0842B952BA62BB72B19
:1016B00080933C0190933D01A0933E01B0933F0184
:1016C000E091FA01F091FB01309739F06FE070E0A2
:1016D000809162019091630109950E948504FF91B8
:1016E000EF91BF91AF919F918F917F916F915F919A
:1016F0004F913F912F910F900FBE0F901F90189513
:101700001F920F920FB60F9211242F933F934F9376
:101710005F936F937F938F939F93AF93BF93EF9359
:10172000FF9320913A0130913B0140918400509108
:101730008500C901032E000CAA0BBB0BDC01992705
:10174000882760E070E0842B952BA62BB72B809325
:101750003C0190933D01A0933E01B0933F01B09BAB
:101760001BC04091840050918500C9010196092E4B
:10177000000CAA0BBB0BDC019927882760E070E006
:10178000842B952BA62BB72B80933C0190933D0186
:10179000A0933E01B0933F01E091FC01F091FD0167
:1017A000309739F060E170E08091640190916501BB
:1017B00009950E948504FF91EF91BF91AF919F9190
:1017C0008F917F916F915F914F913F912F910F90EA
:1017D0000FBE0F901F9018951F920F920FB60F9289
:1017E00011242F933F934F935F936F937F938F9326
:1017F0009F93AF93BF93EF93FF9320913A01309162
:101800003B014091840050918500C901032E000CDA
:10181000AA0BBB0BDC019927882760E070E0842BC2
:10182000952BA62BB72B80933C0190933D01A09361
:101830003E01B0933F01B09B1BC04091840050918A
:101840008500C9010196092E000CAA0BBB0BDC0117
:101850009927882760E070E0842B952BA62BB72B67
:1018600080933C0190933D01A0933E01B0933F01D2
:10187000E091FE01F091FF01309739F061E170E0F5
:10188000809166019091670109950E948504FF91FE
:10189000EF91BF91AF919F918F917F916F915F91E8
:1018A0004F913F912F910F900FBE0F901F90189561
:1018B000EF92FF920F931F93CF93DF937B01EB0186
:1018C000A881B981109761F1FC01068117812085FB
:1018D000318516964D915D916D917C911997041704
:1018E00015072607370714F41BC0DF01ED91FC91A3
:1018F0001197309749F046815781608571850417AB
:101900001507260737078CF7EC01F983E883109752
:1019100021F4F7019183808307C08D939C9304C0C9
:10192000EC01B983A883F5CFDF91CF911F910F917F
:10193000FF90EF900895EF92FF920F931F93CF9334
:10194000DF937B01EB01A881B981109761F1FC0164
:10195000028113812481358112964D915D916D91A3
:101960007C911597041715072607370714F41BC039
:10197000DF01ED91FC911197309749F0428153813D
:101980006481758104171507260737078CF7EC016A
:10199000F983E883109721F4F7019183808307C0CE
:1019A0008D939C9304C0EC01B983A883F5CFDF919C
:1019B000CF911F910F91FF90EF900895DC01ED9171
:1019C000FC911197309759F48FEF8093EC0080933E
:1019D000ED008093EE0081E083BF8895FDCF2081EC
:1019E00031812D933C93CF0108951F920F920FB632
:1019F0000F9211242F933F934F935F936F937F9395
:101A00008F939F93EF93FF9380913A0190913B01C5
:101A1000019690933B0180933A01E0914001F0914F
:101A20004101309701F142815381648175818617AC
:101A30009707C9F4CA012091840030918500421BA8
:101A4000530B4130510529F4809184009091850019
:101A500001969093890080938800EFE6F0E0808102
:101A60008260808305C0EFE6F0E080818D7F808317
:101A7000FF91EF919F918F917F916F915F914F9126
:101A80003F912F910F900FBE0F901F9018951F92AE
:101A90000F920FB60F921124CF92DF92EF92FF9226
:101AA0002F933F934F935F936F937F938F939F9366
:101AB000AF93BF93EF93FF93C0903A01D0903B0157
:101AC0002091840030918500B0990FC00D2C000C3E
:101AD000EE08FF08D601992788276901E12CF12C2F
:101AE000C82AD92AEA2AFB2A15C0209184003091FD
:101AF00085008FEFC81AD80A0D2C000CEE08FF08DD
:101B0000D601992788276901E12CF12CC82AD92A06
:101B1000EA2AFB2AE0914001F0914101309709F453
:101B200042C082819381A481B5818C199D09AE093F
:101B3000BF09181619061A061B06ECF180E491E09D
:101B40000E94DE0C62E471E00E94580CE0914001BA
:101B5000F0914101309739F182819381A481B5815F
:101B60008C199D09AE09BF09181619061A061B061D
:101B70002CF721C09C014091840050918500841B6A
:101B8000950B019731F420918400309185002F5FEF
:101B90003F4F3093890020938800EFE6F0E080818A
:101BA0008260808305C0EFE6F0E080818D7F8083D6
:101BB0000E9485040CC082819381A481B58120910B
:101BC0003A0130913B012A173B0769F7D3CFFF91C8
:101BD000EF91BF91AF919F918F917F916F915F91A5
:101BE0004F913F912F91FF90EF90DF90CF900F900A
:101BF0000FBE0F901F9018953F924F925F926F9279
:101C00007F928F929F92AF92BF92CF92DF92EF928C
:101C1000FF920F931F93CF93DF932B013C01490158
:101C20005A018FB78078382EF89480E391E00E94B3
:101C3000DE0CEC011B870A87FD86EC86DF86CE86EC
:101C4000332061F0E0912A01F0912B010280F381B1
:101C5000E02D82819381A481B58108C080913C01EF
:101C600090913D01A0913E01B0913F01480E591E57
:101C70006A1E7B1E4A825B826C827D821814190464
:101C80001A041B0444F00F2E88248A94982CA82C44
:101C9000FFE7BF2EF02D840C951CA61CB71C8E826E
:101CA0009F82A886B98680913A0190913B0140912C
:101CB000840050918500B0990EC0092E000CAA0B2B
:101CC000BB0BDC019927882760E070E0842B952B03
:101CD000A62BB72B13C0209184003091850001966C
:101CE000092E000CAA0BBB0BDC0199278827A90140
:101CF00060E070E0842B952BA62BB72B481A590A6D
:101D00006A0A7B0A1414150416041704ACF560E47F
:101D100071E0CE010E949B0CE0914001F0914101E5
:101D2000309721F182819381A481B58120913A017C
:101D300030913B012A173B07C9F49C014091840074
:101D400050918500841B950B019731F420918400FC
:101D5000309185002F5F3F4F30938900209388009A
:101D6000EFE6F0E080818260808341C0EFE6F0E042
:101D700080818D7F80833BC062E471E0CE010E9450
:101D8000580C3320B9F180912E0190912F010097CA
:101D900081F1E0912C01F0912D01209142013091CF
:101DA000430102811381D90116964D915D916D9188
:101DB0007C911997D80116960D911D912D913C910A
:101DC0001997401B510B620B730B9AF4DC012D9198
:101DD0003C91119730932F0120932E01ED93FC93AA
:101DE00090932D0180932C010E94650402C0332042
:101DF00009F07894CE01DF91CF911F910F91FF9060
:101E0000EF90DF90CF90BF90AF909F908F907F909A
:101E10006F905F904F903F900895AF92BF92CF9296
:101E2000DF92FF920F931F93CF93DF938C016B018F
:101E30005A018FB78078F82EF894D801CD91DC91B3
:101E4000209771F1AC81BD81109731F0CD91DC917B
:101E5000AC81BD811097D1F7E0912A01F0912B015F
:101E6000CE17DF0721F0FF2009F44DC007C0FF2087
:101E700009F44CC078948FEF9FEF66C0D80112969A
:101E80008D919C911397009709F446C0DC0115963B
:101E90001C921E92149740C0789480E090E054C049
:101EA00080912A0190912B01F80191838083FF207A
:101EB00041F0D80112968D919C911397019709F0EA
:101EC0007894B501C801F6010995D82FC92F8FB7AD
:101ED000F894D80111961C921E9212968D919C91A5
:101EE00013978230910548F013961C921E92129718
:101EF000FC01158214820E946504FF2051F0789441
:101F00008D2F9C2F21C08FEF9FEF1EC08FEF9FEF73
:101F10001BC08D2F9C2F18C0D8011396FC93EE93F5
:101F2000129715830483CE010E946504E0912A0173
:101F3000F0912B0182819381892B09F4ADCFCF01E0
:101F4000F80191838083B5CFDF91CF911F910F91DD
:101F5000FF90DF90CF90BF90AF90089500912A013D
:101F600010912B0182E491E00E94DE0CEC01D8017B
:101F700013969C938E93129778944E855F856C850B
:101F80007D858A859B850E940D0F8FB7F89480917F
:101F900030019091310199838883D0933101C093AE
:101FA0003001E0912C01F0912D0100811181E801B7
:101FB0002A813B81A0914201B09143011097C1F069
:101FC0002115310559F216968D919D910D90BC9178
:101FD000A02DE9014E815F8168857985841B950B71
:101FE000A60BB70B181619061A061B060CF0B6CF6F
:101FF00010932D0100932C0180912E0190912F01BF
:1020000091838083F0932F01E0932E01A0912C0106
:10201000B0912D011496ED91FC911597309741F0F8
:10202000A081B1811496ED91FC9115973097C1F77D
:10203000CD010E94650492CF4231B8F42FB7F894D5
:1020400050E0440F551FFA01EC5BFE4F91838083F3
:10205000FA01E452FE4F7183608341E050E0FC01DD
:102060005383428322230CF4789408958C01EB016E
:102070007A018FB7F8940E94FA037894209721F0A0
:10208000B701C801FE0109958FB7F8940E94850435
:10209000789481E083BF8895FDCF97FB072E16F4D7
:1020A000009407D077FD09D00E948D1007FC05D061
:1020B0003EF4909581959F4F0895709561957F4F5F
:1020C0000895052E97FB1EF400940E94781057FD8A
:1020D00007D00E94A11007FC03D04EF40C94781096
:1020E00050954095309521953F4F4F4F5F4F089544
:1020F00090958095709561957F4F8F4F9F4F089574
:10210000EE0FFF1F0590F491E02D09940E94C3107B
:10211000B7FF0895821B930B0895AA1BBB1B51E1C7
:1021200007C0AA1FBB1FA617B70710F0A61BB70B47
:10213000881F991F5A95A9F780959095BC01CD01EC
:102140000895A1E21A2EAA1BBB1BFD010DC0AA1FF8
:10215000BB1FEE1FFF1FA217B307E407F50720F010
:10216000A21BB30BE40BF50B661F771F881F991F8B
:102170001A9469F760957095809590959B01AC01D4
:10218000BD01CF010895A29FB001B39FC001A39FDD
:10219000700D811D1124911DB29F700D811D1124A0
:1021A000911D0895DC012D923D924D925D926D92AC
:1021B0007D928D929D92AD92BD92CD92DD92ED92E7
:1021C000FD920D931D93CD93DD93FF91EF918DB70C
:1021D0008D938EB78D938FB78D93ED93FD93882755
:1021E00099270994DC01CB0181309105811D2D9047
:1021F0003D904D905D906D907D908D909D90AD90B7
:10220000BD90CD90DD90ED90FD900D911D91CD9103
:10221000DD91ED91FD910D90F894FEBF0FBEEDBFE5
:0A222000ED91FD910994F894FFCFB1
:10222A00000000001A010A011A0100000000000063
:10223A00040000000000000032010000000000005D
:10224A0000000000000000003201000200026801E4
:02225A001D0263
:0400000300000724CE
:00000001FF
