:100000000C9438000C9467030C94D3030C943F04B5
:100010000C94AB040C9417050C9455000C94EE0B47
:100020000C9455000C949C0B0C9483050C94EF05D8
:100030000C945B060C94C7060C9433070C949F0732
:100040000C940B080C9477080C94E3080C944F095B
:100050000C94BB090C94270A0C94930A6200670065
:100060006C00710076007B00800085008A008F00A4
:1000700011241FBECFEFD4E0DEBFCDBF11E0A0E062
:10008000B1E0ECEFFEE102C005900D92AE32B10797
:10009000D9F724E0AEE2B1E001C01D92A938B20761
:1000A000E1F70E9445020C947C0F0C940000CF9362
:1000B00090E0FC01F097EA30F105A8F5E25DFF4F12
:1000C0000C94130F21E035E045E0C1E02CC020E0A6
:1000D00031E041E0C0E027C021E03EE041E0C1E086
:1000E00022C021E03BE041E0C1E01DC020E03BE058
:1000F00045E0C0E018C021E03BE044E0C1E013C0AF
:1001000021E03FE044E0C1E00EC020E031E041E00A
:10011000C1E009C021E03FE045E0C1E004C021E0CA
:100120003BE045E0C1E06230710509F45AC03CF49F
:100130006115710579F06130710531F1DFC064300E
:10014000710509F495C00CF466C06530710509F4B9
:10015000A9C0D4C0ECEEF0E09081907F8C2F892B69
:100160008083E1EFF0E08081807F842B8083E6EF65
:10017000F0E08081807F832B8083EBEFF0E0808153
:10018000807F822B8083BAC0ECEEF0E0508160E18A
:10019000C69FC0011124952F9F70892B8083E1EFAA
:1001A000F0E0508160E1469FC0011124452F4F705F
:1001B000842B8083E6EFF0E0408150E1359FC00161
:1001C0001124342F3F70832B8083EBEFF0E03081DC
:1001D00060E1269FC0011124232F2F70822B808382
:1001E0008DC0EDEEF0E09081907F8C2F892B808385
:1001F000E2EFF0E08081807F842B8083E7EFF0E006
:100200008081807F832B8083ECEFF0E08081807F92
:10021000822B808373C0EDEEF0E0508160E1C69FD9
:10022000C0011124952F9F70892B8083E2EFF0E0AD
:10023000508160E1469FC0011124452F4F70842BEF
:100240008083E7EFF0E0408150E1359FC001112449
:10025000342F3F70832B8083ECEFF0E0308160E13E
:10026000269FC0011124232F2F70822B808346C02C
:10027000EEEEF0E09081907F8C2F892B8083E3EF6E
:10028000F0E08081807F842B8083E8EFF0E0808144
:10029000807F832B8083EDEFF0E08081807F822B55
:1002A00080832CC0EEEEF0E0508160E1C69FC0017B
:1002B0001124952F9F70892B8083E3EFF0E050810C
:1002C00060E1469FC0011124952F9F70892B808388
:1002D000E8EFF0E0408150E1359FC0011124942FF8
:1002E0009F70892B8083EDEFF0E0308160E1269FE5
:1002F000C0011124932F9F70892B8083CF91089583
:100300008F929F92AF92BF92CF92DF92EF92FF9225
:10031000CF93DF934B015C01EA0124E630E040E03B
:1003200050E00E94F40E0F2EFAE0CF2ED12CE12CDB
:10033000F12CF02DA70196010E94F40EBE0180E37E
:10034000820F0E9457002196C501B401A7019601B2
:100350000E94F40E862FBE01805D0E945700DF913F
:10036000CF91FF90EF90DF90CF90BF90AF909F9094
:100370008F900895E1E6F0E080E88083108297EBAB
:100380009093E50097E09093E60090EC9093E40062
:100390009FE09093E7008DBB80ED80936C009CE024
:1003A00090936B0085B98CE58EB90895CF93DF9358
:1003B000EC011E9906C060E070E0888599850E9476
:1003C0005F021F9906C060E070E0888599850E94F1
:1003D0006A021C9906C060E070E0888599850E94D9
:1003E0007502DF91CF910895CF93DF93EC0162996D
:1003F00006C060E070E0888599850E948E0263994E
:1004000006C060E070E0888599850E949702DF91C0
:10041000CF910895CF92DF92EF92FF920F931F93A7
:10042000CF93DF93EC01EC81FD814681578164819C
:100430007581072E000C880B990B0E948001EE81BC
:10044000FF814681578164817581072E000C880BDE
:10045000990B0E948001C12CD12C0F2EFAE0EF2EB7
:10046000F2E0FF2EF02D8E0120E030E0A90160E0E7
:1004700070E0CB010E94A30CDF91CF911F910F91EF
:10048000FF90EF90DF90CF90089578940E94BA018A
:1004900041E064EF71E080E091E00E94C30E42E031
:1004A00066ED71E080E091E00E94C30E40E050E014
:1004B0006AE072E080E091E00E94DD0E0895FC01A8
:1004C000248135812336310524F42F5F3F4F358356
:1004D00024830895FC01248135811216130624F427
:1004E00021503109358324830895FC01848195814D
:1004F000009769F022853385232B49F49187808703
:100500001582148281E090E0938782870895808528
:10051000918595838483138612860895FC01268134
:1005200037812430310511F4178216820895FC01B9
:1005300026813781232B21F424E030E03783268382
:100540000895CF93DF9300D000D0CDB7DEB789E216
:1005500092E029E033E0FC0170979183808340961C
:1005600082179307C1F71092FA021092F902E4E69B
:10057000F1E081E891E0918380838EE991E0968FAC
:10058000858FABEBB1E0B3AFA2AF1D921C92FA83A3
:10059000E983E5E6F3E0FC83EB8389819A810696A3
:1005A0000E943B0F8B819C81E981FA81978B868B1E
:1005B000918F808F85E59EE0948F838F15821482C2
:1005C0007D96FA83E983EB81FC81E05AFF4FFC833F
:1005D000EB8389819A81885D9140F9F6ECEFF1E037
:1005E000118210821582148213821282E1E6F0E0F9
:1005F00080E880831082109285001092840084E04D
:100600008093810081E080936F000F900F900F9096
:100610000F90DF91CF910895CF93DF9300D0CDB7A6
:10062000DEB79A83898380912601909127010696EF
:100630000E943B0F892B59F489819A81909327015D
:100640008093260161E070E006960E945B0F0F9098
:100650000F90DF91CF9108950F931F93CF93DF9366
:10066000C0912801D0912901AA81BB81E0913E016E
:10067000F0913F01309731F180912A0190912B0147
:10068000009701F1109779F0468157816085718557
:1006900016960D911D912D913C911997401B510B70
:1006A000620B730B7AF4FC012081318130932B01B2
:1006B00020932A01D183C08390932901809328013C
:1006C0000E940C03DF91CF911F910F9108951F920B
:1006D0000F920FB60F9211242F933F934F935F9376
:1006E0006F937F938F939F93AF93BF93EF93FF93FA
:1006F000209136013091370140918400509185005E
:10070000C901032E000CAA0BBB0BDC01992788271B
:1007100060E070E0842B952BA62BB72B80933801DB
:1007200090933901A0933A01B0933B01B09B1BC059
:100730004091840050918500C9010196092E000C5A
:10074000AA0BBB0BDC019927882760E070E0842BA3
:10075000952BA62BB72B8093380190933901A0934A
:100760003A01B0933B01E091D801F091D901309763
:1007700039F060E070E0809140019091410109956D
:100780000E942C03FF91EF91BF91AF919F918F91A8
:100790007F916F915F914F913F912F910F900FBE7D
:1007A0000F901F9018951F920F920FB60F92112461
:1007B0002F933F934F935F936F937F938F939F9369
:1007C000AF93BF93EF93FF932091360130913701A0
:1007D0004091840050918500C901032E000CAA0BA2
:1007E000BB0BDC019927882760E070E0842B952BF8
:1007F000A62BB72B8093380190933901A0933A012F
:10080000B0933B01B09B1BC0409184005091850088
:10081000C9010196092E000CAA0BBB0BDC0199271C
:10082000882760E070E0842B952BA62BB72B809354
:10083000380190933901A0933A01B0933B01E091C4
:10084000DA01F091DB01309739F061E070E08091DE
:1008500042019091430109950E942C03FF91EF9171
:10086000BF91AF919F918F917F916F915F914F91C8
:100870003F912F910F900FBE0F901F9018951F92D0
:100880000F920FB60F9211242F933F934F935F93C4
:100890006F937F938F939F93AF93BF93EF93FF9348
:1008A00020913601309137014091840050918500AC
:1008B000C901032E000CAA0BBB0BDC01992788276A
:1008C00060E070E0842B952BA62BB72B809338012A
:1008D00090933901A0933A01B0933B01B09B1BC0A8
:1008E0004091840050918500C9010196092E000CA9
:1008F000AA0BBB0BDC019927882760E070E0842BF2
:10090000952BA62BB72B8093380190933901A09398
:100910003A01B0933B01E091DC01F091DD013097A9
:1009200039F062E070E080914401909145010995B1
:100930000E942C03FF91EF91BF91AF919F918F91F6
:100940007F916F915F914F913F912F910F900FBECB
:100950000F901F9018951F920F920FB60F921124AF
:100960002F933F934F935F936F937F938F939F93B7
:10097000AF93BF93EF93FF932091360130913701EE
:100980004091840050918500C901032E000CAA0BF0
:10099000BB0BDC019927882760E070E0842B952B46
:1009A000A62BB72B8093380190933901A0933A017D
:1009B000B0933B01B09B1BC04091840050918500D7
:1009C000C9010196092E000CAA0BBB0BDC0199276B
:1009D000882760E070E0842B952BA62BB72B8093A3
:1009E000380190933901A0933A01B0933B01E09113
:1009F000DE01F091DF01309739F063E070E0809123
:100A000046019091470109950E942C03FF91EF91B7
:100A1000BF91AF919F918F917F916F915F914F9116
:100A20003F912F910F900FBE0F901F9018951F921E
:100A30000F920FB60F9211242F933F934F935F9312
:100A40006F937F938F939F93AF93BF93EF93FF9396
:100A500020913601309137014091840050918500FA
:100A6000C901032E000CAA0BBB0BDC0199278827B8
:100A700060E070E0842B952BA62BB72B8093380178
:100A800090933901A0933A01B0933B01B09B1BC0F6
:100A90004091840050918500C9010196092E000CF7
:100AA000AA0BBB0BDC019927882760E070E0842B40
:100AB000952BA62BB72B8093380190933901A093E7
:100AC0003A01B0933B01E091E001F091E1013097F0
:100AD00039F064E070E080914801909149010995F6
:100AE0000E942C03FF91EF91BF91AF919F918F9145
:100AF0007F916F915F914F913F912F910F900FBE1A
:100B00000F901F9018951F920F920FB60F921124FD
:100B10002F933F934F935F936F937F938F939F9305
:100B2000AF93BF93EF93FF9320913601309137013C
:100B30004091840050918500C901032E000CAA0B3E
:100B4000BB0BDC019927882760E070E0842B952B94
:100B5000A62BB72B8093380190933901A0933A01CB
:100B6000B0933B01B09B1BC0409184005091850025
:100B7000C9010196092E000CAA0BBB0BDC019927B9
:100B8000882760E070E0842B952BA62BB72B8093F1
:100B9000380190933901A0933A01B0933B01E09161
:100BA000E201F091E301309739F065E070E0809167
:100BB0004A0190914B0109950E942C03FF91EF91FE
:100BC000BF91AF919F918F917F916F915F914F9165
:100BD0003F912F910F900FBE0F901F9018951F926D
:100BE0000F920FB60F9211242F933F934F935F9361
:100BF0006F937F938F939F93AF93BF93EF93FF93E5
:100C00002091360130913701409184005091850048
:100C1000C901032E000CAA0BBB0BDC019927882706
:100C200060E070E0842B952BA62BB72B80933801C6
:100C300090933901A0933A01B0933B01B09B1BC044
:100C40004091840050918500C9010196092E000C45
:100C5000AA0BBB0BDC019927882760E070E0842B8E
:100C6000952BA62BB72B8093380190933901A09335
:100C70003A01B0933B01E091E401F091E501309736
:100C800039F066E070E080914C0190914D0109953A
:100C90000E942C03FF91EF91BF91AF919F918F9193
:100CA0007F916F915F914F913F912F910F900FBE68
:100CB0000F901F9018951F920F920FB60F9211244C
:100CC0002F933F934F935F936F937F938F939F9354
:100CD000AF93BF93EF93FF9320913601309137018B
:100CE0004091840050918500C901032E000CAA0B8D
:100CF000BB0BDC019927882760E070E0842B952BE3
:100D0000A62BB72B8093380190933901A0933A0119
:100D1000B0933B01B09B1BC0409184005091850073
:100D2000C9010196092E000CAA0BBB0BDC01992707
:100D3000882760E070E0842B952BA62BB72B80933F
:100D4000380190933901A0933A01B0933B01E091AF
:100D5000E601F091E701309739F067E070E08091AB
:100D60004E0190914F0109950E942C03FF91EF9144
:100D7000BF91AF919F918F917F916F915F914F91B3
:100D80003F912F910F900FBE0F901F9018951F92BB
:100D90000F920FB60F9211242F933F934F935F93AF
:100DA0006F937F938F939F93AF93BF93EF93FF9333
:100DB0002091360130913701409184005091850097
:100DC000C901032E000CAA0BBB0BDC019927882755
:100DD00060E070E0842B952BA62BB72B8093380115
:100DE00090933901A0933A01B0933B01B09B1BC093
:100DF0004091840050918500C9010196092E000C94
:100E0000AA0BBB0BDC019927882760E070E0842BDC
:100E1000952BA62BB72B8093380190933901A09383
:100E20003A01B0933B01E091E801F091E90130977C
:100E300039F068E070E0809150019091510109957E
:100E40000E942C03FF91EF91BF91AF919F918F91E1
:100E50007F916F915F914F913F912F910F900FBEB6
:100E60000F901F9018951F920F920FB60F9211249A
:100E70002F933F934F935F936F937F938F939F93A2
:100E8000AF93BF93EF93FF932091360130913701D9
:100E90004091840050918500C901032E000CAA0BDB
:100EA000BB0BDC019927882760E070E0842B952B31
:100EB000A62BB72B8093380190933901A0933A0168
:100EC000B0933B01B09B1BC04091840050918500C2
:100ED000C9010196092E000CAA0BBB0BDC01992756
:100EE000882760E070E0842B952BA62BB72B80938E
:100EF000380190933901A0933A01B0933B01E091FE
:100F0000EA01F091EB01309739F069E070E08091EF
:100F100052019091530109950E942C03FF91EF918A
:100F2000BF91AF919F918F917F916F915F914F9101
:100F30003F912F910F900FBE0F901F9018951F9209
:100F40000F920FB60F9211242F933F934F935F93FD
:100F50006F937F938F939F93AF93BF93EF93FF9381
:100F600020913601309137014091840050918500E5
:100F7000C901032E000CAA0BBB0BDC0199278827A3
:100F800060E070E0842B952BA62BB72B8093380163
:100F900090933901A0933A01B0933B01B09B1BC0E1
:100FA0004091840050918500C9010196092E000CE2
:100FB000AA0BBB0BDC019927882760E070E0842B2B
:100FC000952BA62BB72B8093380190933901A093D2
:100FD0003A01B0933B01E091EC01F091ED013097C3
:100FE00039F06AE070E080915401909155010995C3
:100FF0000E942C03FF91EF91BF91AF919F918F9130
:101000007F916F915F914F913F912F910F900FBE04
:101010000F901F9018951F920F920FB60F921124E8
:101020002F933F934F935F936F937F938F939F93F0
:10103000AF93BF93EF93FF93209136013091370127
:101040004091840050918500C901032E000CAA0B29
:10105000BB0BDC019927882760E070E0842B952B7F
:10106000A62BB72B8093380190933901A0933A01B6
:10107000B0933B01B09B1BC0409184005091850010
:10108000C9010196092E000CAA0BBB0BDC019927A4
:10109000882760E070E0842B952BA62BB72B8093DC
:1010A000380190933901A0933A01B0933B01E0914C
:1010B000EE01F091EF01309739F06BE070E0809134
:1010C00056019091570109950E942C03FF91EF91D1
:1010D000BF91AF919F918F917F916F915F914F9150
:1010E0003F912F910F900FBE0F901F9018951F9258
:1010F0000F920FB60F9211242F933F934F935F934C
:101100006F937F938F939F93AF93BF93EF93FF93CF
:101110002091360130913701409184005091850033
:10112000C901032E000CAA0BBB0BDC0199278827F1
:1011300060E070E0842B952BA62BB72B80933801B1
:1011400090933901A0933A01B0933B01B09B1BC02F
:101150004091840050918500C9010196092E000C30
:10116000AA0BBB0BDC019927882760E070E0842B79
:10117000952BA62BB72B8093380190933901A09320
:101180003A01B0933B01E091F001F091F101309709
:1011900039F06CE070E08091580190915901099507
:1011A0000E942C03FF91EF91BF91AF919F918F917E
:1011B0007F916F915F914F913F912F910F900FBE53
:1011C0000F901F9018951F920F920FB60F92112437
:1011D0002F933F934F935F936F937F938F939F933F
:1011E000AF93BF93EF93FF93209136013091370176
:1011F0004091840050918500C901032E000CAA0B78
:10120000BB0BDC019927882760E070E0842B952BCD
:10121000A62BB72B8093380190933901A0933A0104
:10122000B0933B01B09B1BC040918400509185005E
:10123000C9010196092E000CAA0BBB0BDC019927F2
:10124000882760E070E0842B952BA62BB72B80932A
:10125000380190933901A0933A01B0933B01E0919A
:10126000F201F091F301309739F06DE070E0809178
:101270005A0190915B0109950E942C03FF91EF9117
:10128000BF91AF919F918F917F916F915F914F919E
:101290003F912F910F900FBE0F901F9018951F92A6
:1012A0000F920FB60F9211242F933F934F935F939A
:1012B0006F937F938F939F93AF93BF93EF93FF931E
:1012C0002091360130913701409184005091850082
:1012D000C901032E000CAA0BBB0BDC019927882740
:1012E00060E070E0842B952BA62BB72B8093380100
:1012F00090933901A0933A01B0933B01B09B1BC07E
:101300004091840050918500C9010196092E000C7E
:10131000AA0BBB0BDC019927882760E070E0842BC7
:10132000952BA62BB72B8093380190933901A0936E
:101330003A01B0933B01E091F401F091F50130974F
:1013400039F06EE070E080915C0190915D0109954B
:101350000E942C03FF91EF91BF91AF919F918F91CC
:101360007F916F915F914F913F912F910F900FBEA1
:101370000F901F9018951F920F920FB60F92112485
:101380002F933F934F935F936F937F938F939F938D
:10139000AF93BF93EF93FF932091360130913701C4
:1013A0004091840050918500C901032E000CAA0BC6
:1013B000BB0BDC019927882760E070E0842B952B1C
:1013C000A62BB72B8093380190933901A0933A0153
:1013D000B0933B01B09B1BC04091840050918500AD
:1013E000C9010196092E000CAA0BBB0BDC01992741
:1013F000882760E070E0842B952BA62BB72B809379
:10140000380190933901A0933A01B0933B01E091E8
:10141000F601F091F701309739F06FE070E08091BC
:101420005E0190915F0109950E942C03FF91EF915D
:10143000BF91AF919F918F917F916F915F914F91EC
:101440003F912F910F900FBE0F901F9018951F92F4
:101450000F920FB60F9211242F933F934F935F93E8
:101460006F937F938F939F93AF93BF93EF93FF936C
:1014700020913601309137014091840050918500D0
:10148000C901032E000CAA0BBB0BDC01992788278E
:1014900060E070E0842B952BA62BB72B809338014E
:1014A00090933901A0933A01B0933B01B09B1BC0CC
:1014B0004091840050918500C9010196092E000CCD
:1014C000AA0BBB0BDC019927882760E070E0842B16
:1014D000952BA62BB72B8093380190933901A093BD
:1014E0003A01B0933B01E091F801F091F901309796
:1014F00039F060E170E0809160019091610109959F
:101500000E942C03FF91EF91BF91AF919F918F911A
:101510007F916F915F914F913F912F910F900FBEEF
:101520000F901F9018951F920F920FB60F921124D3
:101530002F933F934F935F936F937F938F939F93DB
:10154000AF93BF93EF93FF93209136013091370112
:101550004091840050918500C901032E000CAA0B14
:10156000BB0BDC019927882760E070E0842B952B6A
:10157000A62BB72B8093380190933901A0933A01A1
:10158000B0933B01B09B1BC04091840050918500FB
:10159000C9010196092E000CAA0BBB0BDC0199278F
:1015A000882760E070E0842B952BA62BB72B8093C7
:1015B000380190933901A0933A01B0933B01E09137
:1015C000FA01F091FB01309739F061E170E0809110
:1015D00062019091630109950E942C03FF91EF91A4
:1015E000BF91AF919F918F917F916F915F914F913B
:1015F0003F912F910F900FBE0F901F901895EF9273
:10160000FF920F931F93CF93DF937B01EB01A88190
:10161000B981109761F1FC01068117812085318520
:1016200016964D915D916D917C9119970417150750
:101630002607370714F41BC0DF01ED91FC911197C9
:10164000309749F0468157816085718504171507E9
:10165000260737078CF7EC01F983E883109721F40C
:10166000F7019183808307C08D939C9304C0EC01A4
:10167000B983A883F5CFDF91CF911F910F91FF9090
:10168000EF900895EF92FF920F931F93CF93DF9304
:101690007B01EB01A881B981109761F1FC01028106
:1016A00013812481358112964D915D916D917C91CC
:1016B0001597041715072607370714F41BC0DF0119
:1016C000ED91FC911197309749F0428153816481EB
:1016D000758104171507260737078CF7EC01F98386
:1016E000E883109721F4F7019183808307C08D93DD
:1016F0009C9304C0EC01B983A883F5CFDF91CF910F
:101700001F910F91FF90EF900895DC01ED91FC91F6
:101710001197309759F48FEF8093EC008093ED0090
:101720008093EE0081E083BF8895FDCF20813181D9
:101730002D933C93CF0108951F920F920FB60F92F5
:1017400011242F933F934F935F936F937F938F93C6
:101750009F93EF93FF93809136019091370101960B
:101760009093370180933601E0913C01F0913D0167
:10177000309701F142815381648175818617970703
:10178000C9F4CA012091840030918500421B530B9B
:101790004130510529F48091840090918500019693
:1017A0009093890080938800EFE6F0E0808182606A
:1017B000808305C0EFE6F0E080818D7F8083FF911C
:1017C000EF919F918F917F916F915F914F913F9199
:1017D0002F910F900FBE0F901F9018951F920F9290
:1017E0000FB60F921124CF92DF92EF92FF922F93B8
:1017F0003F934F935F936F937F938F939F93AF9399
:10180000BF93EF93FF93C0903601D09037012091A2
:10181000840030918500B0990FC00D2C000CEE08AB
:10182000FF08D601992788276901E12CF12CC82AE5
:10183000D92AEA2AFB2A15C020918400309185001C
:101840008FEFC81AD80A0D2C000CEE08FF08D6013D
:10185000992788276901E12CF12CC82AD92AEA2A7C
:10186000FB2AE0913C01F0913D01309709F442C020
:1018700082819381A481B5818C199D09AE09BF092C
:10188000181619061A061B06ECF18CE391E00E946B
:10189000850B6EE371E00E94FF0AE0913C01F0913C
:1018A0003D01309739F182819381A481B5818C19F2
:1018B0009D09AE09BF09181619061A061B062CF752
:1018C00021C09C014091840050918500841B950BA0
:1018D000019731F420918400309185002F5F3F4FB4
:1018E0003093890020938800EFE6F0E080818260E9
:1018F000808305C0EFE6F0E080818D7F80830E94C9
:101900002C030CC082819381A481B5812091360182
:10191000309137012A173B0769F7D3CFFF91EF9139
:10192000BF91AF919F918F917F916F915F914F91F7
:101930003F912F91FF90EF90DF90CF900F900FBECF
:101940000F901F9018953F924F925F926F927F92E7
:101950008F929F92AF92BF92CF92DF92EF92FF92BF
:101960000F931F93CF93DF932B013C0149015A0141
:101970008FB78078382EF8948CE291E00E94850B26
:10198000EC011B870A87FD86EC86DF86CE86332036
:1019900061F0E0912601F09127010280F381E02DB2
:1019A00082819381A481B58108C080913801909192
:1019B0003901A0913A01B0913B01480E591E6A1EAF
:1019C0007B1E4A825B826C827D82181419041A0481
:1019D0001B0444F00F2E88248A94982CA82CFFE72F
:1019E000BF2EF02D840C951CA61CB71C8E829F82E6
:1019F000A886B98680913601909137014091840084
:101A000050918500B0990EC0092E000CAA0BBB0B9B
:101A1000DC019927882760E070E0842B952BA62BAA
:101A2000B72B13C020918400309185000196092EB8
:101A3000000CAA0BBB0BDC0199278827A90160E0E9
:101A400070E0842B952BA62BB72B481A590A6A0AEB
:101A50007B0A1414150416041704ACF56CE371E04A
:101A6000CE010E94420BE0913C01F0913D01309784
:101A700021F182819381A481B58120913601309139
:101A800037012A173B07C9F49C014091840050910B
:101A90008500841B950B019731F4209184003091CF
:101AA00085002F5F3F4F3093890020938800EFE639
:101AB000F0E080818260808341C0EFE6F0E08081C9
:101AC0008D7F80833BC06EE371E0CE010E94FF0AF0
:101AD0003320B9F180912A0190912B01009781F177
:101AE000E0912801F091290120913E0130913F01C0
:101AF00002811381D90116964D915D916D917C9172
:101B00001997D80116960D911D912D913C91199719
:101B1000401B510B620B730B9AF4DC012D913C912D
:101B2000119730932B0120932A01ED93FC9390930E
:101B30002901809328010E940C0302C0332009F080
:101B40007894CE01DF91CF911F910F91FF90EF908C
:101B5000DF90CF90BF90AF909F908F907F906F90CD
:101B60005F904F903F900895AF92BF92CF92DF92D7
:101B7000FF920F931F93CF93DF938C016B015A0158
:101B80008FB78078F82EF894D801CD91DC9120970A
:101B900071F1AC81BD81109731F0CD91DC91AC81B8
:101BA000BD811097D1F7E0912601F0912701CE1762
:101BB000DF0721F0FF2009F44DC007C0FF2009F422
:101BC0004CC078948FEF9FEF66C0D80112968D912C
:101BD0009C911397009709F446C0DC0115961C925E
:101BE0001E92149740C0789480E090E054C0809199
:101BF000260190912701F80191838083FF2041F015
:101C0000D80112968D919C911397019709F07894C1
:101C1000B501C801F6010995D82FC92F8FB7F894DF
:101C2000D80111961C921E9212968D919C91139739
:101C30008230910548F013961C921E921297FC0177
:101C4000158214820E940C03FF2051F078948D2F8E
:101C50009C2F21C08FEF9FEF1EC08FEF9FEF1BC007
:101C60008D2F9C2F18C0D8011396FC93EE931297DA
:101C700015830483CE010E940C03E0912601F091AC
:101C8000270182819381892B09F4ADCFCF01F8011F
:101C900091838083B5CFDF91CF911F910F91FF90FA
:101CA000DF90CF90BF90AF900895009126011091E2
:101CB00027018EE391E00E94850BEC01D801139679
:101CC0009C938E93129778944E855F856C857D8565
:101CD0008A859B850E94B40D8FB7F89480912C0162
:101CE00090912D0199838883D0932D01C0932C016D
:101CF000E0912801F091290100811181E8012A81F8
:101D00003B81A0913E01B0913F011097C1F0211598
:101D1000310559F216968D919D910D90BC91A02D93
:101D2000E9014E815F8168857985841B950BA60B3F
:101D3000B70B181619061A061B060CF0B6CF10932F
:101D400029010093280180912A0190912B01918310
:101D50008083F0932B01E0932A01A0912801B09198
:101D600029011496ED91FC911597309741F0A081CF
:101D7000B1811496ED91FC9115973097C1F7CD0183
:101D80000E940C0392CF4231B8F42FB7F89450E080
:101D9000440F551FFA01E05CFE4F91838083FA01E6
:101DA000E852FE4F7183608341E050E0FC015383B1
:101DB000428322230CF4789408958C01EB017A017C
:101DC0008FB7F8940E94A1027894209721F0B70170
:101DD000C801FE0109958FB7F8940E942C037894EE
:101DE00081E083BF8895FDCF052E97FB1EF40094FC
:101DF0000E940B0F57FD07D00E94190F07FC03D05C
:101E00004EF40C940B0F50954095309521953F4F13
:101E10004F4F5F4F089590958095709561957F4FD6
:101E20008F4F9F4F0895EE0FFF1F0590F491E02D07
:101E30000994A1E21A2EAA1BBB1BFD010DC0AA1F0B
:101E4000BB1FEE1FFF1FA217B307E407F50720F023
:101E5000A21BB30BE40BF50B661F771F881F991F9E
:101E60001A9469F760957095809590959B01AC01E7
:101E7000BD01CF010895DC012D923D924D925D92FE
:101E80006D927D928D929D92AD92BD92CD92DD929A
:101E9000ED92FD920D931D93CD93DD93FF91EF9104
:101EA0008DB78D938EB78D938FB78D93ED93FD93F3
:101EB000882799270994DC01CB0181309105811D88
:101EC0002D903D904D905D906D907D908D909D906A
:101ED000AD90BD90CD90DD90ED90FD900D911D9158
:101EE000CD91DD91ED91FD910D90F894FEBF0FBE67
:0C1EF000EDBFED91FD910994F894FFCF37
:101EFC000000000018010A01180100000000000099
:101F0C000400000000002E01000000000000000092
:0E1F1C00000000002E01FC01FC01640119020E
:00000001FF
