:100000000C942E000C9438000C9438000C9438009A
:100010000C9438000C9438000C9438000C94380080
:100020000C9438000C9438000C9438000C94380070
:100030000C9438000C9438000C9438000C94380060
:100040000C9438000C9438000C9438000C94380050
:100050000C9438000C9438000C94380011241FBE06
:10006000CFEFD4E0DEBFCDBF0E944B000C94500018
:100070000C940000E1E6F0E080E88083108297EBCA
:100080009093E50097E09093E6009FE09093E7005F
:100090008093E40008950E943A0080E090E0089583
:0400A000F894FFCF02
:00000001FF
