:100000000C942E000C9440000C9440000C94400082
:100010000C9440000C9440000C9440000C94400060
:100020000C9440000C9440000C9440000C94400050
:100030000C9440000C9440000C9440000C94400040
:100040000C9440000C9440000C9440000C94400030
:100050000C9440000C9440000C94400011241FBEEE
:10006000CFEFD4E0DEBFCDBF21E0A0E0B1E001C022
:100070001D92A230B207E1F70E9410030C94940382
:100080000C940000E1E6F0E080E88083108297EBBA
:100090009093E50097E09093E6009FE09093E7004F
:1000A0008093E40094E09093810085B908950F93C4
:1000B0001F938330910509F45BC034F481309105BE
:1000C00069F0029721F1E7C08530910509F49AC0E3
:1000D0000CF467C0069709F4AEC0DDC0ECEEF0E0AA
:1000E0008081807F682B6083E1EFF0E08081807FFA
:1000F000482B4083E6EFF0E08081807F282B20832F
:10010000EBEFF0E08081807F082B0083C4C0ECEE31
:10011000F0E0808162957295707F7627607F762708
:100120008F70682B6083E1EFF0E0808142955295FB
:10013000507F5427407F54278F70482B4083E6EF31
:10014000F0E0808122953295307F3227207F322760
:100150008F70282B2083EBEFF0E0808102951295C1
:10016000107F1027007F10278F70082B008393C00B
:10017000EDEEF0E08081807F682B6083E2EFF0E0BD
:100180008081807F482B4083E7EFF0E08081807F93
:10019000282B2083ECEFF0E08081807F082B008308
:1001A0007AC0EDEEF0E0808162957295707F7627DF
:1001B000607F76278F70682B6083E2EFF0E08081AC
:1001C00042955295507F5427407F54278F70482B7B
:1001D0004083E7EFF0E0808122953295307F32272F
:1001E000207F32278F70282B2083ECEFF0E0808176
:1001F00002951295107F1027007F10278F70082B13
:10020000008349C0EEEEF0E08081807F682B608340
:10021000E3EFF0E08081807F482B4083E8EFF0E05F
:100220008081807F282B2083EDEFF0E08081807F2C
:10023000082B008330C0EEEEF0E08081629572956D
:10024000707F7627607F76278F70682B6083E3EF5F
:10025000F0E0808142955295507F5427407F54278B
:100260008F70482B4083E8EFF0E080812295329533
:10027000307F3227207F32278F70282B2083EDEFAD
:10028000F0E0808102951295107F1027007F1027E3
:100290008F70082B00831F910F910895EF92FF92AA
:1002A0000F931F93CF93DF93673071050CF0A5C0B8
:1002B0007B01C82FD0E0CA30D10564F00CE010E01B
:1002C00020E030E042E050E068E070E0C7010E94CA
:1002D000570093C0209761F401E010E025E030E082
:1002E00045E050E061E070E0C7010E9457001EC089
:1002F000C130D10561F400E010E021E030E041E0E0
:1003000050E060E070E0C7010E9457001EC0C2309C
:10031000D10561F401E010E02EE030E041E050E072
:1003200061E070E0C7010E9457001EC0C330D105D4
:1003300061F401E010E02BE030E041E050E061E0EA
:1003400070E0C7010E9457001EC0C430D10561F49F
:1003500000E010E02BE030E045E050E060E070E0CD
:10036000C7010E9457001EC0C530D10561F401E0ED
:1003700010E02BE030E044E050E061E070E0C701C5
:100380000E9457001EC0C630D10561F401E010E0A4
:100390002FE030E044E050E061E070E0C7010E94EF
:1003A00057001EC0C730D10561F400E010E021E025
:1003B00030E041E050E061E070E0C7010E9457008A
:1003C0001CC0C830D10561F401E010E02FE030E03E
:1003D00045E050E061E070E0C7010E9457000DC0A9
:1003E000299759F400E010E02BE030E045E050E0C0
:1003F00061E070E0C7010E945700DF91CF911F912B
:100400000F91FF90EF9008958F929F92AF92BF92BD
:10041000EF92FF920F931F93CF93DF93C6E0D0E04C
:100420000F2EFAE08F2E912CA12CB12CF02D6115FE
:1004300071058105910591F0A50194010E94390390
:10044000E22EF32E042F152F862FBE010E944E019F
:100450006E2D7F2D802F912F219749F7DF91CF911E
:100460001F910F91FF90EF90BF90AF909F908F9052
:1004700008958F929F92AF92BF92CF92DF92EF92A8
:10048000FF924B015C0185E088169104A104B10440
:10049000DCF1D501C40181709927AA27B078BB236C
:1004A00054F40197A109B1098E6F9F6FAF6FBF6FB1
:1004B0000196A11DB11D892B8A2B8B2B51F1C12CCB
:1004C000D12C76016894C1F80AC0C501B401A70116
:1004D00096010E943903672B682B692BF1F08FEF8F
:1004E000C81AD80AE80AF80AA7019601C701B60196
:1004F0000E942903681579058A059B0534F361E09C
:1005000070E080E090E00CC061E070E080E090E09E
:1005100007C060E070E0CB0103C060E070E0CB0199
:10052000FF90EF90DF90CF90BF90AF909F908F9013
:100530000895CF92DF92EF92FF92CF93DF93EC0179
:10054000C880D980EA80FB80C701B6010E943902C9
:10055000613071058105910521F4C701B6010E9442
:10056000040288819981AA81BB810196A11DB11DD8
:1005700088839983AA83BB83DF91CF91FF90EF900B
:10058000DF90CF9008958091840090918500992309
:100590001CF41092F900089581E08093F900089509
:1005A00023B181E090E002C0880F991F2A95E2F7FD
:1005B0000197A9F48091000190910101019779F4CC
:1005C000109201011092000123B181E090E002C07D
:1005D000880F991F2A95E2F7892B89F0089523B196
:1005E00081E090E002C0880F991F2A95E2F7892BDD
:1005F000B1F48091000190910101892B81F48091E7
:10060000FE00813019F41092FE0003C081E0809357
:10061000FE0081E090E09093010180930001089535
:10062000CF93DF9300D000D0CDB7DEB70E94420059
:1006300088EA91E6A0E0B0E089839A83AB83BC832B
:100640000E94C302CE0101960E9499020E94D0022C
:10065000F7CFDB018F939F930E945803BF91AF9117
:10066000A29F800D911DA39F900DB29F900D11240C
:100670000895052E97FB1EF400940E94500357FD29
:1006800007D00E94630307FC03D04EF40C94500380
:1006900050954095309521953F4F4F4F5F4F0895AE
:1006A00090958095709561957F4F8F4F9F4F0895DE
:1006B0000E948503A59F900DB49F900DA49F800D6F
:1006C000911D11240895A1E21A2EAA1BBB1BFD0146
:1006D0000DC0AA1FBB1FEE1FFF1FA217B307E40721
:1006E000F50720F0A21BB30BE40BF50B661F771F79
:1006F000881F991F1A9469F7609570958095909559
:100700009B01AC01BD01CF010895A29FB001B39F31
:10071000C001A39F700D811D1124911DB29F700D0A
:0C072000811D1124911D0895F894FFCF55
:00000001FF
