:100000000C9438000C9455000C9455000C94CF02BD
:100010000C9455000C9455000C9455000C94FF0260
:100020000C9455000C9455000C9455000C945500FC
:100030000C9455000C9455000C9455000C945500EC
:100040000C9455000C9455000C9455000C945500DC
:100050000C9455000C9455000C9455007F008A00B8
:1000600094009F00AA00B500C100CD00D700E300B6
:1000700011241FBECFEFD4E0DEBFCDBF11E0A0E062
:10008000B1E0E4E4FAE002C005900D92AC30B107B3
:10009000D9F723E0ACE0B1E001C01D92A933B2076B
:1000A000E1F70E9425030C9420050C940000C9EF91
:1000B000D0E011E080E091E00E9436048881812741
:1000C0008883F8CFE1E6F0E080E88083108287EB58
:1000D0008093E50087E08093E60080EC8093E40065
:1000E0008FE08093E700089590E0FC01F097EA30FC
:1000F000F10508F073C0E25DFF4F0C94B70481E096
:100100008093100195E090931701909311018093D3
:10011000160108951092100181E0809317018093D9
:10012000110110921601089581E0809310018093CF
:1001300017019EE09093110180931601089581E0CC
:1001400080931001809317019BE09093110180939D
:10015000160108951092100185E0809317018BE03D
:100160008093110110921601089581E0809310018F
:1001700094E0909317019BE09093110180931601F6
:10018000089581E08093100194E0909317019FE01F
:100190009093110180931601089581E080931001DE
:1001A000809317018093110110921601089581E048
:1001B0008093100195E0909317019FE090931101B7
:1001C00080931601089581E08093100195E090934B
:1001D00017019BE0909311018093160108958230DE
:1001E000910509F466C02CF4009769F0019761F15C
:1001F00008958430910509F4B2C00CF47BC00597D2
:1002000009F4CEC00895ECEEF0E08081807F9091FB
:100210001001892B8083E1EFF0E08081807F909155
:100220001701892B8083E6EFF0E08081807F909139
:100230001101892B8083EBEFF0E08081807F90912A
:100240001601892B80830895ECEEF0E020819091D7
:10025000100130E1939FC0011124922F9F70892BD0
:100260008083E1EFF0E020819091170130E1939FCE
:10027000C0011124922F9F70892B8083E6EFF0E05C
:1002800020819091110130E1939FC0011124922FA0
:100290009F70892B8083EBEFF0E020819091160115
:1002A00030E1939FC0011124922F9F70892B80838E
:1002B0000895EDEEF0E08081807F90911001892B10
:1002C0008083E2EFF0E08081807F90911701892B9D
:1002D0008083E7EFF0E08081807F90911101892B8E
:1002E0008083ECEFF0E08081807F90911601892B74
:1002F00080830895EDEEF0E020819091100130E1CF
:10030000939FC0011124922F9F70892B8083E2EF6D
:10031000F0E020819091170130E1939FC0011124FA
:10032000922F9F70892B8083E7EFF0E020819091DE
:10033000110130E1939FC0011124922F9F70892BEE
:100340008083ECEFF0E020819091160130E1939FE3
:10035000C0011124922F9F70892B80830895EEEEA7
:10036000F0E08081807F90911001892B8083E3EF02
:10037000F0E08081807F90911701892B8083E8EFE6
:10038000F0E08081807F90911101892B8083EDEFD7
:10039000F0E08081807F90911601892B8083089501
:1003A000EEEEF0E020819091100130E1939FC001CA
:1003B0001124922F9F70892B8083E3EFF0E020813E
:1003C0009091170130E1939FC0011124922F9F70EB
:1003D000892B8083E8EFF0E020819091110130E1DA
:1003E000939FC0011124922F9F70892B8083EDEF82
:1003F000F0E020819091160130E1939FC00111241B
:10040000922F9F70892B80830895CF93DF93EB0108
:100410000E947400CE010E94EF00DF91CF910895F9
:100420008F929F92AF92BF92CF92DF92EF92FF9204
:100430004B015C0183E088169104A104B104ACF186
:10044000D501C40181709927AA27B078BB2354F441
:100450000197A109B1098E6F9F6FAF6FBF6F0196B2
:10046000A11DB11D892B8A2B8B2B21F1C12CD12CE5
:1004700076016894C1F80AC0C501B401A7019601CC
:100480000E949804672B682B692BC1F08FEFC81A64
:10049000D80AE80AF80AC814D904EA04FB0461F788
:1004A00061E070E080E090E00CC061E070E080E02E
:1004B00090E007C060E070E0CB0103C060E070E056
:1004C000CB01FF90EF90DF90CF90BF90AF909F90C7
:1004D0008F9008958F929F92AF92BF92CF92DF92AA
:1004E000EF92FF92CF93DF934B015C01EA0124E688
:1004F00030E040E050E00E9498040F2EFAE0CF2E4A
:10050000D12CE12CF12CF02DA70196010E9498042A
:10051000BE0180E3820F0E9405022196C501B4014D
:10052000A70196010E949804862FBE01805D0E945B
:100530000502DF91CF91FF90EF90DF90CF90BF90B9
:10054000AF909F908F900895C12CD12C760143E0FD
:1005500050E0C701B6010E946A0284E091E00E9467
:1005600036048FEFC81AD80AE80AF80AF0CFEC016F
:10057000C12CD12C7601C394C701B6010E94100290
:10058000672B682B692B29F0AE01C701B6010E94C9
:100590006A028FEFC81AD80AE80AF80AEDCF1F924C
:1005A0000F920FB60F9211242F933F934F935F93A7
:1005B0006F937F938F939F93AF93BF93EF93FF932B
:1005C00023B181E090E002C0880F991F2A95E2F7DD
:1005D000019721F484E091E00E946C04FF91EF9177
:1005E000BF91AF919F918F917F916F915F914F914B
:1005F0003F912F910F900FBE0F901F9018951F9253
:100600000F920FB60F9211242F933F934F935F9346
:100610006F937F938F939F93AF93BF93EF93FF93CA
:1006200080E091E00E946C04FF91EF91BF91AF9147
:100630009F918F917F916F915F914F913F912F91FA
:100640000F900FBE0F901F9018950E94620060E0FF
:1006500070E084EA92E00E945B030E94140460E070
:1006600070E087E590E00E945B030E94140480E044
:1006700090E00E94B702CF93DF9300D0CDB7DEB7F2
:100680009A838983809108019091090106960E94BE
:10069000DF04892B59F489819A8190930901809311
:1006A000080161E070E006960E94FF040F900F9031
:1006B000DF91CF910895CF93DF9300D0CDB7DEB710
:1006C000F89420910C0130910D01232B89F522EF34
:1006D00031E030938A01209389012FE532E0309395
:1006E000F7012093F6012CEC32E030936402209362
:1006F00063021092D1021092D00220E82DBB209309
:100700006C0025B92DE02093810022E43FE0309376
:1007100089002093880022E020936F0010928500CA
:100720001092840021E030E030930D0120930C0101
:1007300020910A0130910B013A832983232BA9F0E0
:10074000E981FA814481558150930B0140930A015C
:10075000918380837383628315821482CF0106960E
:100760000E94DF040197C1F501C0FFCF7894A091EA
:100770000801B0910901ED91FC91119712968D91AC
:100780009C9113970995F894E0910801F091090163
:100790001582148280910A0190910B01009729F42F
:1007A000F0930B01E0930A0106C095838483F093D4
:1007B0000B01E0930A0180910E0190910F010097C7
:1007C00051F0FC012481358130930F0120930E01FB
:1007D0000E943B0301C0FFCFE981FA8136968981EF
:1007E0009A8187599F4F918B808B938B828BE98164
:1007F000FA811582148280910E0190910F01009769
:1008000029F4F0930F01E0930E0108C0E981FA8109
:1008100095838483F0930F01E0930E0178940F90F9
:100820000F90DF91CF910895F89480910E019091EF
:100830000F010097C9F0FC0124813581E091080186
:10084000F0910901158214822115310529F4F093E4
:100850000F01E0930E0106C035832483F0930F014E
:10086000E0930E010E943B0378940895FC01F894F4
:1008700080819181892B29F481E090E091838083AC
:1008800029C080910E0190910F010097B9F0DC0111
:1008900014962D913C91159730930F0120930E01E2
:1008A000A0910801B091090115961C921E9214970F
:1008B000228133812115310529F401C0FFCFB38393
:1008C000A28306C015963C932E931497B383A283FC
:1008D0000E943B0378940895FC01F89482819381EF
:1008E000009711F1DC0114962D913C9115973383FB
:1008F0002283E0910801F091090115821482209170
:100900000E0130910F012115310529F4F0930F01EB
:10091000E0930E0106C035832483F0930F01E0932A
:100920000E010E943B0302C0118210827894089548
:10093000052E97FB1EF400940E94AF0457FD07D0CC
:100940000E94BD0407FC03D04EF40C94AF045095F4
:100950004095309521953F4F4F4F5F4F08959095AB
:100960008095709561957F4F8F4F9F4F0895EE0F43
:10097000FF1F0590F491E02D0994A1E21A2EAA1B05
:10098000BB1BFD010DC0AA1FBB1FEE1FFF1FA2173F
:10099000B307E407F50720F0A21BB30BE40BF50B3C
:1009A000661F771F881F991F1A9469F760957095C5
:1009B000809590959B01AC01BD01CF010895DC01AC
:1009C0002D923D924D925D926D927D928D929D926F
:1009D000AD92BD92CD92DD92ED92FD920D931D935D
:1009E000CD93DD93FF91EF918DB78D938EB78D935E
:1009F0008FB78D93ED93FD93882799270994DC0198
:100A0000CB0181309105811D2D903D904D905D90E1
:100A10006D907D908D909D90AD90BD90CD90DD902E
:100A2000ED90FD900D911D91CD91DD91ED91FD9198
:100A30000D90F894FEBF0FBEEDBFED91FD910994AE
:040A4000F894FFCF58
:0C0A440001000000010000001801850105
:00000001FF
