S00C00004C6162332E73726563D6
S11300000C9438000C9455000C9455000C94D502B3
S11300100C9455000C9455000C9455000C941A0340
S11300200C9455000C9455000C9455000C945500F8
S11300300C9455000C9455000C9455000C945500E8
S11300400C9455000C9455000C9455000C945500D8
S11300500C9455000C9455000C94550087009200A4
S11300609C00A700B200BD00C900D500DF00EB0072
S113007011241FBECFEFD4E0DEBFCDBF11E0A0E05E
S1130080B1E0EEE8FAE002C005900D92AC30B107A1
S1130090D9F723E0ACE0B1E001C01D92AB33B20765
S11300A0E1F70E9442030C9445050C940000C9EF4B
S11300B0D0E011E080E091E00E9456040E947403B5
S11300C018161906BCF78881812788830E94790352
S11300D0F1CFE1E6F0E080E88083108297EB909323
S11300E0E50097E09093E60090EC9093E4009FE0A5
S11300F09093E70085B9089590E0FC01F097EA3009
S1130100F10508F073C0E25DFF4F0C94DC0481E05C
S11301108093120195E090931901909313018093B9
S1130120180108951092120181E0809319018093BF
S1130130130110921801089581E0809312018093B5
S113014019019EE09093130180931801089581E0B2
S113015080931201809319019BE090931301809383
S1130160180108951092120185E0809319018BE023
S11301708093130110921801089581E08093120175
S113018094E0909319019BE09093130180931801DC
S1130190089581E08093120194E0909319019FE007
S11301A09093130180931801089581E080931201C4
S11301B0809319018093130110921801089581E02E
S11301C08093120195E0909319019FE0909313019D
S11301D080931801089581E08093120195E0909333
S11301E019019BE0909313018093180108958230C4
S11301F0910509F466C02CF4009769F0019761F148
S113020008958430910509F4B2C00CF47BC00597BD
S113021009F4CEC00895ECEEF0E08081807F9091E7
S11302201201892B8083E1EFF0E08081807F90913F
S11302301901892B8083E6EFF0E08081807F909123
S11302401301892B8083EBEFF0E08081807F909114
S11302501801892B80830895ECEEF0E020819091C1
S1130260120130E1939FC0011124922F9F70892BBA
S11302708083E1EFF0E020819091190130E1939FB8
S1130280C0011124922F9F70892B8083E6EFF0E048
S113029020819091130130E1939FC0011124922F8A
S11302A09F70892B8083EBEFF0E0208190911801FF
S11302B030E1939FC0011124922F9F70892B80837A
S11302C00895EDEEF0E08081807F90911201892BFA
S11302D08083E2EFF0E08081807F90911901892B87
S11302E08083E7EFF0E08081807F90911301892B78
S11302F08083ECEFF0E08081807F90911801892B5E
S113030080830895EDEEF0E020819091120130E1B8
S1130310939FC0011124922F9F70892B8083E2EF59
S1130320F0E020819091190130E1939FC0011124E4
S1130330922F9F70892B8083E7EFF0E020819091CA
S1130340130130E1939FC0011124922F9F70892BD8
S11303508083ECEFF0E020819091180130E1939FCD
S1130360C0011124922F9F70892B80830895EEEE93
S1130370F0E08081807F90911201892B8083E3EFEC
S1130380F0E08081807F90911901892B8083E8EFD0
S1130390F0E08081807F90911301892B8083EDEFC1
S11303A0F0E08081807F90911801892B80830895EB
S11303B0EEEEF0E020819091120130E1939FC001B4
S11303C01124922F9F70892B8083E3EFF0E020812A
S11303D09091190130E1939FC0011124922F9F70D5
S11303E0892B8083E8EFF0E020819091130130E1C4
S11303F0939FC0011124922F9F70892B8083EDEF6E
S1130400F0E020819091180130E1939FC001112404
S1130410922F9F70892B80830895CF93DF93EB01F4
S11304200E947C00CE010E94F700DF91CF910895D5
S11304308F929F92AF92BF92CF92DF92EF92FF92F0
S11304404B015C0183E088169104A104B104ACF172
S1130450D501C40181709927AA27B078BB2354F42D
S11304600197A109B1098E6F9F6FAF6FBF6F01969E
S1130470A11DB11D892B8A2B8B2B21F1C12CD12CD1
S113048076016894C1F80AC0C501B401A7019601B8
S11304900E94BD04672B682B692BC1F08FEFC81A2B
S11304A0D80AE80AF80AC814D904EA04FB0461F774
S11304B061E070E080E090E00CC061E070E080E01A
S11304C090E007C060E070E0CB0103C060E070E042
S11304D0CB01FF90EF90DF90CF90BF90AF909F90B3
S11304E08F9008958F929F92AF92BF92CF92DF9296
S11304F0EF92FF92CF93DF934B015C01EA0124E674
S113050030E040E050E00E94BD040F2EFAE0CF2E10
S1130510D12CE12CF12CF02DA70196010E94BD04F1
S1130520BE0180E3820F0E940D022196C501B40131
S1130530A70196010E94BD04862FBE01805D0E9422
S11305400D02DF91CF91FF90EF90DF90CF90BF909D
S1130550AF909F908F90089584E091E00E9456049C
S11305606091140170911501809116019091170109
S113057043E050E00E947202EFCFEC01C12CD12C79
S11305807601C394C701B6010E941802672B682B39
S1130590692B29F0AE01C701B6010E9472028FEFE8
S11305A0C81AD80AE80AF80AEDCF1F920F920FB6BC
S11305B00F9211242F933F934F935F936F937F93E5
S11305C08F939F93AF93BF93EF93FF9323B181E0F6
S11305D090E002C0880F991F2A95E2F70197C9F4A9
S11305E08091140190911501A0911601B091170109
S11305F00196A11DB11D8093140190931501A09340
S11306001601B093170184E091E00E9489040E94CE
S11306103404FF91EF91BF91AF919F918F917F919E
S11306206F915F914F913F912F910F900FBE0F905B
S11306301F9018951F920F920FB60F9211242F93AB
S11306403F934F935F936F937F938F939F93AF9356
S1130650BF93EF93FF9380E091E00E9489040E948E
S11306603404FF91EF91BF91AF919F918F917F914E
S11306706F915F914F913F912F910F900FBE0F900B
S11306801F9018950E94690060E070E08CEA92E087
S11306900E947E0360E070E087E590E00E947E03A4
S11306A080E090E00E94BD02CF93DF9300D0CDB7ED
S11306B0DEB79A8389838091080190910901069697
S11306C00E940405892B59F489819A819093090128
S11306D08093080161E070E006960E9424050F9063
S11306E00F90DF91CF9108958091100190911101A5
S11306F0089510921101109210010895CF93DF9381
S113070000D0CDB7DEB7F89420910C0130910D01E3
S1130710232B71F524EF31E030938C0120938B016E
S113072021E632E03093F9012093F8012EEC32E017
S113073030936602209365021092D3021092D20283
S113074020E825B92DE02093810022E43FE0309396
S113075089002093880022E020936F001092850086
S11307601092840021E030E030930D0120930C01BD
S113077020910A0130910B013A832983232BA9F09C
S1130780E981FA814481558150930B0140930A0118
S1130790918380837383628315821482CF010696CA
S11307A00E9404050197C1F501C0FFCF7894A09180
S11307B00801B0910901ED91FC91119712968D9168
S11307C09C9113970995F894E0910801F09109011F
S11307D01582148280910A0190910B01009729F4EB
S11307E0F0930B01E0930A0106C095838483F09390
S11307F00B01E0930A0180910E0190910F01009783
S113080051F0FC012481358130930F0120930E01B6
S11308100E94540301C0FFCFE981FA813696898191
S11308209A8187599F4F918B808B938B828BE9811F
S1130830FA811582148280910E0190910F01009724
S113084029F4F0930F01E0930E0108C0E981FA81C5
S113085095838483F0930F01E0930E0178940F90B5
S11308600F90DF91CF910895F89480910E019091AB
S11308700F010097D1F0FC0124813581E09108013A
S1130880F0910901158214822115310529F4F093A0
S11308900F01E0930E0106C035832483F0930F010A
S11308A0E0930E010E94540378940895FC01F89497
S11308B080819181892B29F481E090E09183808368
S11308C026C0A0910801B091090115961C921E92B0
S11308D0149782819381009719F4B383A28306C08D
S11308E015969C938E931497B383A28380910E01E3
S11308F090910F01009751F0FC01248135813093D0
S11309000F0120930E010E94540301C0FFCF78947D
S11309100895FC01F89482819381892B51F1A0916F
S11309200801B091090115961C921E9214978091AA
S11309300E0190910F01009729F4B0930F01A09339
S11309400E0108C015969C938E931497B0930F01D3
S1130950A0930E0182819381009751F0DC011496DB
S11309602D913C911597338322830E94540303C035
S1130970FFCF1182108278940895052E97FB1EF400
S113098000940E94D40457FD07D00E94E20407FC9F
S113099003D04EF40C94D404509540953095219591
S11309A03F4F4F4F5F4F0895909580957095619597
S11309B07F4F8F4F9F4F0895EE0FFF1F0590F491C7
S11309C0E02D0994A1E21A2EAA1BBB1BFD010DC048
S11309D0AA1FBB1FEE1FFF1FA217B307E407F507EB
S11309E020F0A21BB30BE40BF50B661F771F881FC7
S11309F0991F1A9469F760957095809590959B015D
S1130A00AC01BD01CF010895DC012D923D924D92C0
S1130A105D926D927D928D929D92AD92BD92CD929A
S1130A20DD92ED92FD920D931D93CD93DD93FF9195
S1130A30EF918DB78D938EB78D938FB78D93ED9383
S1130A40FD93882799270994DC01CB018130910516
S1130A50811D2D903D904D905D906D907D908D9079
S1130A609D90AD90BD90CD90DD90ED90FD900D9159
S1130A701D91CD91DD91ED91FD910D90F894FEBF06
S1110A800FBEEDBFED91FD910994F894FFCFE8
S10F0A8E01000000010000001A018701B3
S9030000FC
