:100000000C9438000C9455000C9455000C94FA0292
:100010000C9455000C9455000C9455000C94280336
:100020000C9455000C9455000C9455000C945500FC
:100030000C9455000C9455000C9455000C945500EC
:100040000C9455000C9455000C9455000C945500DC
:100050000C9455000C9455000C945500B300BE0050
:10006000C800D300DE00E900F50001010B01170113
:1000700011241FBECFEFD4E0DEBFCDBF11E0A0E062
:10008000B1E0EEE3FAE002C005900D92A430B107B2
:10009000D9F723E0A4E0B1E001C01D92A333B20779
:1000A000E1F70E944C030C941D050C94000081E0C4
:1000B00090E0EEEFF0E041E023B1BC0102C0660F3A
:1000C000771F2A95E2F7672BB1F420910801309150
:1000D00009012130310579F41092090110920801CB
:1000E00023B1BC0102C0660F771F2A95E2F7613089
:1000F000710511F710C023B1BC0102C0660F771F54
:100100002A95E2F761307105B9F620910801309126
:100110000901232B89F62081213011F4108201C0BE
:1001200040839093090180930801C6CFE1E6F0E097
:1001300080E88083108287EB8093E50087E08093DE
:10014000E60080EC8093E4008FE08093E700089560
:1001500090E0FC01F097EA30F10508F073C0E25D31
:10016000FF4F0C94B40481E080930E0195E09093CE
:10017000110190930F0180931001089510920E01C8
:1001800081E08093110180930F0110921001089576
:1001900081E080930E01809311019EE090930F0106
:1001A00080931001089581E080930E0180931101E6
:1001B0009BE090930F0180931001089510920E011F
:1001C00085E0809311018BE080930F011092100164
:1001D000089581E080930E0194E0909311019BE0DB
:1001E00090930F0180931001089581E080930E0198
:1001F00094E0909311019FE090930F018093100180
:10020000089581E080930E018093110180930F0186
:1002100010921001089581E080930E0195E0909373
:1002200011019FE090930F0180931001089581E0E8
:1002300080930E0195E0909311019BE090930F0144
:100240008093100108958230910509F466C02CF462
:10025000009769F0019761F108958430910509F4E0
:10026000B2C00CF47BC0059709F4CEC00895ECEE43
:10027000F0E08081807F90910E01892B8083E1EFF7
:10028000F0E08081807F90911101892B8083E6EFDF
:10029000F0E08081807F90910F01892B8083EBEFCC
:1002A000F0E08081807F90911001892B80830895F8
:1002B000ECEEF0E0208190910E0130E1939FC001BF
:1002C0001124922F9F70892B8083E1EFF0E0208131
:1002D0009091110130E1939FC0011124922F9F70E2
:1002E000892B8083E6EFF0E0208190910F0130E1CF
:1002F000939FC0011124922F9F70892B8083EBEF75
:10030000F0E020819091100130E1939FC001112411
:10031000922F9F70892B80830895EDEEF0E080810D
:10032000807F90910E01892B8083E2EFF0E0808145
:10033000807F90911101892B8083E7EFF0E080812D
:10034000807F90910F01892B8083ECEFF0E080811A
:10035000807F90911001892B80830895EDEEF0E06D
:10036000208190910E0130E1939FC0011124922FC2
:100370009F70892B8083E2EFF0E020819091110142
:1003800030E1939FC0011124922F9F70892B8083AD
:10039000E7EFF0E0208190910F0130E1939FC001E1
:1003A0001124922F9F70892B8083ECEFF0E0208145
:1003B0009091100130E1939FC0011124922F9F7002
:1003C000892B80830895EEEEF0E08081807F90910C
:1003D0000E01892B8083E3EFF0E08081807F909194
:1003E0001101892B8083E8EFF0E08081807F90917C
:1003F0000F01892B8083EDEFF0E08081807F909169
:100400001001892B80830895EEEEF0E02081909119
:100410000E0130E1939FC0011124922F9F70892B10
:100420008083E3EFF0E020819091110130E1939F10
:10043000C0011124922F9F70892B8083E8EFF0E098
:10044000208190910F0130E1939FC0011124922FE0
:100450009F70892B8083EDEFF0E020819091100157
:1004600030E1939FC0011124922F9F70892B8083CC
:100470000895CF93DF93EB010E94A800CE010E9464
:100480002301DF91CF9108958F929F92AF92BF92F7
:10049000CF92DF92EF92FF924B015C0183E08816CE
:1004A0009104A104B104ACF1D501C4018170992774
:1004B000AA27B078BB2354F40197A109B1098E6F24
:1004C0009F6FAF6FBF6F0196A11DB11D892B8A2B46
:1004D0008B2B21F1C12CD12C76016894C1F80AC074
:1004E000C501B401A70196010E949504672B682BF2
:1004F000692BC1F08FEFC81AD80AE80AF80AC814A5
:10050000D904EA04FB0461F761E070E080E090E068
:100510000CC061E070E080E090E007C060E070E057
:10052000CB0103C060E070E0CB01FF90EF90DF9063
:10053000CF90BF90AF909F908F9008958F929F9291
:10054000AF92BF92CF92DF92EF92FF92CF93DF9361
:100550004B015C01EA0184E091E00E944904C5017D
:10056000B40124E630E040E050E00E9495040F2EF4
:10057000FAE0CF2ED12CE12CF12CF02DA701960121
:100580000E949504BE0180E3820F0E9439022196E9
:10059000C501B401A70196010E949504862FBE01F2
:1005A000805D0E94390284E091E00E947004DF9136
:1005B000CF91FF90EF90DF90CF90BF90AF909F9042
:1005C0008F900895EC01C12CD12C7601C394C70102
:1005D000B6010E944402672B682B692B29F0AE01FB
:1005E000C701B6010E949E028FEFC81AD80AE80A16
:1005F000F80AEDCF1F920F920FB60F9211242F938E
:100600003F934F935F936F937F938F939F93AF939A
:10061000BF93EF93FF9323B181E090E002C0880F76
:10062000991F2A95E2F7892B11F40E942E04FF915D
:10063000EF91BF91AF919F918F917F916F915F915A
:100640004F913F912F910F900FBE0F901F901895D3
:100650001F920F920FB60F9211242F933F934F9337
:100660005F936F937F938F939F93AF93BF93EF931A
:10067000FF930E942E04FF91EF91BF91AF919F9144
:100680008F917F916F915F914F913F912F910F903B
:100690000FBE0F901F9018950E94960060E070E0CA
:1006A00082EE92E00E94940363E070E087E590E0C0
:1006B0000E94940380E090E00895DC0115961C925E
:1006C0001E921497DB01ED91FC911197309721F464
:1006D0008D939C930895F90124813581211531056D
:1006E000D1F7958384830895CF93DF9300D0CDB75E
:1006F000DEB79A838983809100019091010106966B
:100700000E94DC04892B59F489819A81909301011C
:100710008093000161E070E006960E94FC040F9057
:100720000F90DF91CF910895CF93DF9300D0CDB795
:10073000DEB7AC01F89480910A0190910B01892BEE
:1007400091F58CEE91E0909384018093830189E58B
:1007500092E09093F1018093F00186EC92E0909307
:100760005E0280935D021092CB021092CA0290E862
:100770009DBB90936C0095B98DE08093810095B9F5
:1007800087E891E0909389008093880082E08093CD
:100790006F00109285001092840081E090E09093A9
:1007A0000B0180930A0180910201909103019A83C9
:1007B00089830097A1F0FC018481958190930301C6
:1007C0008093020151834083738362831582148274
:1007D000CF0106960E94DC04019749F501C0FFCFC6
:1007E0007894A0910001B0910101ED91FC911197D5
:1007F00012968D919C9113970995F89462E071E09F
:1008000080910001909101010E945D0380910C0193
:1008100090910D01009751F0FC01248135813093B6
:100820000D0120930C010E94740301C0FFCFE981E8
:10083000FA81369689819A8187599F4F918B808B57
:10084000938B828B6CE071E089819A810E945D03B9
:1008500078940F900F90DF91CF910895F8946CE009
:1008600071E080910001909101010E945D038091EF
:100870000C0190910D01009759F0FC012481358104
:1008800030930D0120930C010E9474037894089515
:10089000FFCFF894FC0120813181232B29F421E042
:1008A00030E0318320831AC0BC016E5F7F4F80919E
:1008B0000001909101010E945D0380910C019091D3
:1008C0000D01009751F0FC012481358130930D0119
:1008D00020930C010E94740301C0FFCF7894089507
:1008E000CF93DF93F894FC0122813381232BB1F065
:1008F000EC016CE071E080910001909101010E9497
:100900005D038A819B81009741F0FC012481358140
:100910003B832A830E94740304C0FFCFFC01118231
:1009200010827894DF91CF910895052E97FB1EF4E5
:1009300000940E94AC0457FD07D00E94BA0407FC43
:1009400003D04EF40C94AC0450954095309521950D
:100950003F4F4F4F5F4F08959095809570956195EB
:100960007F4F8F4F9F4F0895EE0FFF1F0590F4911B
:10097000E02D0994A1E21A2EAA1BBB1BFD010DC09C
:10098000AA1FBB1FEE1FFF1FA217B307E407F5073F
:1009900020F0A21BB30BE40BF50B661F771F881F1B
:1009A000991F1A9469F760957095809590959B01B1
:1009B000AC01BD01CF010895DC012D923D924D9215
:1009C0005D926D927D928D929D92AD92BD92CD92EF
:1009D000DD92ED92FD920D931D93CD93DD93FF91EA
:1009E000EF918DB78D938EB78D938FB78D93ED93D8
:1009F000FD93882799270994DC01CB01813091056B
:100A0000811D2D903D904D905D906D907D908D90CD
:100A10009D90AD90BD90CD90DD90ED90FD900D91AD
:100A20001D91CD91DD91ED91FD910D90F894FEBF5A
:0E0A30000FBEEDBFED91FD910994F894FFCF3C
:040A3E0012017F0121
:00000001FF
