:100000000C9438000C9455000C9455000C940E037D
:100010000C9455000C9455000C9455000C9443041A
:100020000C9455000C9455000C9455000C945500FC
:100030000C9455000C9455000C9455000C945500EC
:100040000C9455000C9455000C9455000C945500DC
:100050000C9455000C9455000C94550081008C00B4
:100060009600A100AC00B700C300CF00D900E500A6
:1000700011241FBECFEFD4E0DEBFCDBF11E0A0E062
:10008000B1E0E4EFF9E002C005900D92A430B107B1
:10009000D9F723E0A4E0B1E001C01D92A333B20779
:1000A000E1F70E943C030C94F8040C940000C9EFA3
:1000B000D0E011E00E9485030A97E4F3888181274C
:1000C00088830E948A03F6CFE1E6F0E080E880832F
:1000D000108287EB8093E50087E08093E60080EC58
:1000E0008093E4008FE08093E700089590E0FC01A6
:1000F000F097EA30F10508F073C0E25DFF4F0C9411
:100100008F0481E080930A0195E090931101909310
:100110000B0180931001089510920A0181E08093F1
:10012000110180930B0110921001089581E08093DA
:100130000A01809311019EE090930B0180931001BE
:10014000089581E080930A01809311019BE09093D0
:100150000B0180931001089510920A0185E08093AD
:1001600011018BE080930B0110921001089581E042
:1001700080930A0194E0909311019BE090930B010E
:1001800080931001089581E080930A0194E0909398
:1001900011019FE090930B0180931001089581E07D
:1001A00080930A018093110180930B01109210013A
:1001B000089581E080930A0195E0909311019FE0FA
:1001C00090930B0180931001089581E080930A01C0
:1001D00095E0909311019BE090930B0180931001A7
:1001E00008958230910509F466C02CF4009769F0F7
:1001F000019761F108958430910509F4B2C00CF4BF
:100200007BC0059709F4CEC00895ECEEF0E0808144
:10021000807F90910A01892B8083E1EFF0E080815B
:10022000807F90911101892B8083E6EFF0E080813F
:10023000807F90910B01892B8083EBEFF0E0808130
:10024000807F90911001892B80830895ECEEF0E07F
:10025000208190910A0130E1939FC0011124922FD7
:100260009F70892B8083E1EFF0E020819091110154
:1002700030E1939FC0011124922F9F70892B8083BE
:10028000E6EFF0E0208190910B0130E1939FC001F7
:100290001124922F9F70892B8083EBEFF0E0208157
:1002A0009091100130E1939FC0011124922F9F7013
:1002B000892B80830895EDEEF0E08081807F90911E
:1002C0000A01892B8083E2EFF0E08081807F9091AA
:1002D0001101892B8083E7EFF0E08081807F90918E
:1002E0000B01892B8083ECEFF0E08081807F90917F
:1002F0001001892B80830895EDEEF0E0208190912C
:100300000A0130E1939FC0011124922F9F70892B25
:100310008083E2EFF0E020819091110130E1939F22
:10032000C0011124922F9F70892B8083E7EFF0E0AA
:10033000208190910B0130E1939FC0011124922FF5
:100340009F70892B8083ECEFF0E020819091100169
:1003500030E1939FC0011124922F9F70892B8083DD
:100360000895EEEEF0E08081807F90910A01892B64
:100370008083E3EFF0E08081807F90911101892BF1
:100380008083E8EFF0E08081807F90910B01892BE2
:100390008083EDEFF0E08081807F90911001892BC8
:1003A00080830895EEEEF0E0208190910A0130E123
:1003B000939FC0011124922F9F70892B8083E3EFBC
:1003C000F0E020819091110130E1939FC001112450
:1003D000922F9F70892B8083E8EFF0E0208190912D
:1003E0000B0130E1939FC0011124922F9F70892B44
:1003F0008083EDEFF0E020819091100130E1939F38
:10040000C0011124922F9F70892B80830895CF9370
:10041000DF93EB010E947600CE010E94F100DF9194
:10042000CF9108958F929F92AF92BF92CF92DF9219
:10043000EF92FF924B015C0183E088169104A104C6
:10044000B104ACF1D501C40181709927AA27B07815
:10045000BB2354F40197A109B1098E6F9F6FAF6F51
:10046000BF6F0196A11DB11D892B8A2B8B2B21F10A
:10047000C12CD12C76016894C1F80AC0C501B40121
:10048000A70196010E947004672B682B692BC1F0AD
:100490008FEFC81AD80AE80AF80AC814D904EA047F
:1004A000FB0461F761E070E080E090E00CC061E087
:1004B00070E080E090E007C060E070E0CB0103C036
:1004C00060E070E0CB01FF90EF90DF90CF90BF90A5
:1004D000AF909F908F9008958F929F92AF92BF920E
:1004E000CF92DF92EF92FF92CF93DF934B015C01AB
:1004F000EA0124E630E040E050E00E9470040F2E54
:10050000FAE0CF2ED12CE12CF12CF02DA701960191
:100510000E947004BE0180E3820F0E9407022196B0
:10052000C501B401A70196010E947004862FBE0187
:10053000805D0E940702DF91CF91FF90EF90DF90E6
:10054000CF90BF90AF909F908F90089530E020E0C3
:10055000C1E0D0E0EC2EFD2E0C2F1D2F832F922F0B
:1005600002C0802F912F23B1AE0102C0440F551F4E
:100570002A95E2F7452B19F48130910559F123B101
:10058000AE0102C0440F551F2A95E2F741305105D4
:1005900041F73E2D2F2D892B09F780910C01909169
:1005A0000D01A0910E01B0910F01BC01CD016F5F53
:1005B0007F4F8F4F9F4F60930C0170930D0180937D
:1005C0000E0190930F0143E050E00E946C023C2F1B
:1005D0002D2FC4CF23B1AE0102C0440F551F2A9561
:1005E000E2F74130510509F0BECFD7CFEC01C12C65
:1005F000D12C7601C394C701B6010E941202672B69
:10060000682B692B29F0AE01C701B6010E946C026C
:100610008FEFC81AD80AE80AF80AEDCF1F920F9296
:100620000FB60F9211242F933F934F935F936F93C5
:100630007F938F939F93AF93BF93EF93FF9323B1D8
:1006400081E090E002C0880F991F2A95E2F7892B7C
:1006500011F40E942804FF91EF91BF91AF919F91F7
:100660008F917F916F915F914F913F912F910F905B
:100670000FBE0F901F9018950E94640065E470E013
:1006800086EA92E00E948F0368E570E087E590E0DB
:100690000E948F0380E090E00E94F602DC01159634
:1006A0001C921E921497DB01ED91FC9111973097EB
:1006B00021F48D939C930895F901248135812115AE
:1006C0003105D1F7958384830895CF93DF9300D0CC
:1006D000CDB7DEB79A8389838091000190910101A3
:1006E00006960E94B704892B59F489819A819093C8
:1006F00001018093000161E070E006960E94D7043A
:100700000F900F90DF91CF91089580910801909103
:100710000901089510920901109208010895CF93DC
:10072000DF9300D0CDB7DEB7F8942091040130916B
:100730000501232B89F52CEE31E0309384012093C1
:10074000830129E532E03093F1012093F00126EC9A
:1007500032E030935E0220935D021092CB02109241
:10076000CA0220E82DBB20936C0025B92DE0209310
:10077000810020EE30E3309389002093880022E04E
:1007800020936F00109285001092840021E030E0E9
:10079000309305012093040120910201309103015F
:1007A0003A832983232BA9F0E981FA814481558179
:1007B000509303014093020191838083738362838A
:1007C00015821482CF0106960E94B704019749F55D
:1007D00001C0FFCF7894A0910001B0910101ED918B
:1007E000FC91119712968D919C9113970995F8940D
:1007F00062E071E080910001909101010E944E033E
:100800008091060190910701009751F0FC0124812D
:10081000358130930701209306010E94650301C0D2
:10082000FFCFE981FA81369689819A8187599F4F56
:10083000918B808B938B828B66E071E089819A81AA
:100840000E944E0378940F900F90DF91CF910895FE
:10085000F89466E071E080910001909101010E949E
:100860004E038091060190910701009759F0FC0119
:100870002481358130930701209306010E9465038E
:1008800078940895FFCF1F920F920FB60F92112404
:100890002F933F934F935F936F937F938F939F9388
:1008A000AF93BF93EF93FF9380910801909109015B
:1008B000019690930901809308010E942804FF91FA
:1008C000EF91BF91AF919F918F917F916F915F91C8
:1008D0004F913F912F910F900FBE0F901F90189541
:1008E000052E97FB1EF400940E94870457FD07D045
:1008F0000E94950407FC03D04EF40C948704509595
:100900004095309521953F4F4F4F5F4F08959095FB
:100910008095709561957F4F8F4F9F4F0895EE0F93
:10092000FF1F0590F491E02D0994A1E21A2EAA1B55
:10093000BB1BFD010DC0AA1FBB1FEE1FFF1FA2178F
:10094000B307E407F50720F0A21BB30BE40BF50B8C
:10095000661F771F881F991F1A9469F76095709515
:10096000809590959B01AC01BD01CF010895DC01FC
:100970002D923D924D925D926D927D928D929D92BF
:10098000AD92BD92CD92DD92ED92FD920D931D93AD
:10099000CD93DD93FF91EF918DB78D938EB78D93AE
:1009A0008FB78D93ED93FD93882799270994DC01E8
:1009B000CB0181309105811D2D903D904D905D9032
:1009C0006D907D908D909D90AD90BD90CD90DD907F
:1009D000ED90FD900D911D91CD91DD91ED91FD91E9
:1009E0000D90F894FEBF0FBEEDBFED91FD910994FF
:0409F000F894FFCFA9
:0409F40012017F016C
:00000001FF
