:100000000C9438000C9455000C9455000C94B902D3
:100010000C9455000C9455000C9455000C9455000C
:100020000C9455000C9455000C9455000C945500FC
:100030000C9455000C9455000C9455000C945500EC
:100040000C9455000C9455000C9455000C945500DC
:100050000C9455000C9455000C9455007C008700BE
:1000600091009C00A700B200BE00CA00D400E000CE
:1000700011241FBECFEFD4E0DEBFCDBF11E0A0E062
:10008000B1E0EAE8F8E002C005900D92A430B107B3
:10009000D9F723E0A4E0B1E001C01D92AD32B20770
:1000A000E1F70E94D9020C9443040C940000E1E6AD
:1000B000F0E080E88083108297EB9093E50097E072
:1000C0009093E60090EC9093E4009FE09093E7001B
:1000D00094E09093810085B98DBB80936C0084B9C6
:1000E000089590E0FC01F097EA30F10508F073C044
:1000F000E25DFF4F0C94DA0381E08093080195E004
:1001000090930B019093090180930A010895109236
:10011000080181E080930B018093090110920A018C
:10012000089581E08093080180930B019EE09093F5
:10013000090180930A01089581E08093080180936A
:100140000B019BE09093090180930A01089510929E
:10015000080185E080930B018BE0809309011092E8
:100160000A01089581E08093080194E090930B01C7
:100170009BE09093090180930A01089581E08093A8
:10018000080194E090930B019FE090930901809304
:100190000A01089581E08093080180930B01809308
:1001A000090110920A01089581E08093080195E009
:1001B00090930B019FE09093090180930A010895A9
:1001C00081E08093080195E090930B019BE0909370
:1001D000090180930A0108958230910509F466C0EF
:1001E0002CF4009769F0019761F10895843091052E
:1001F00009F4B2C00CF47BC0059709F4CEC0089591
:10020000ECEEF0E08081807F90910801892B808363
:10021000E1EFF0E08081807F90910B01892B80835A
:10022000E6EFF0E08081807F90910901892B808347
:10023000EBEFF0E08081807F90910A01892B808331
:100240000895ECEEF0E020819091080130E1939F59
:10025000C0011124922F9F70892B8083E1EFF0E081
:10026000208190910B0130E1939FC0011124922FC6
:100270009F70892B8083E6EFF0E020819091090147
:1002800030E1939FC0011124922F9F70892B8083AE
:10029000EBEFF0E0208190910A0130E1939FC001E3
:1002A0001124922F9F70892B80830895EDEEF0E04A
:1002B0008081807F90910801892B8083E2EFF0E0BC
:1002C0008081807F90910B01892B8083E7EFF0E0A4
:1002D0008081807F90910901892B8083ECEFF0E091
:1002E0008081807F90910A01892B80830895EDEEB3
:1002F000F0E020819091080130E1939FC00111242A
:10030000922F9F70892B8083E2EFF0E02081909103
:100310000B0130E1939FC0011124922F9F70892B14
:100320008083E7EFF0E020819091090130E1939F15
:10033000C0011124922F9F70892B8083ECEFF0E095
:10034000208190910A0130E1939FC0011124922FE6
:100350009F70892B80830895EEEEF0E08081807F8E
:1003600090910801892B8083E3EFF0E08081807F0A
:1003700090910B01892B8083E8EFF0E08081807FF2
:1003800090910901892B8083EDEFF0E08081807FDF
:1003900090910A01892B80830895EEEEF0E0208190
:1003A0009091080130E1939FC0011124922F9F701A
:1003B000892B8083E3EFF0E0208190910B0130E105
:1003C000939FC0011124922F9F70892B8083E8EFA7
:1003D000F0E020819091090130E1939FC001112448
:1003E000922F9F70892B8083EDEFF0E02081909118
:1003F0000A0130E1939FC0011124922F9F70892B35
:1004000080830895CF93DF93EB010E947100CE01AA
:100410000E94EC00DF91CF9108958F929F92AF924E
:10042000BF92CF92DF92EF92FF924B015C0183E08B
:1004300088169104A104B104ACF1D501C401817006
:100440009927AA27B078BB2354F40197A109B109D1
:100450008E6F9F6FAF6FBF6F0196A11DB11D892B6E
:100460008A2B8B2B21F1C12CD12C76016894C1F8F9
:100470000AC0C501B401A70196010E94BB03672B06
:10048000682B692BC1F08FEFC81AD80AE80AF80A5E
:10049000C814D904EA04FB0461F761E070E080E06D
:1004A00090E00CC061E070E080E090E007C060E0A8
:1004B00070E0CB0103C060E070E0CB01FF90EF90F3
:1004C000DF90CF90BF90AF909F908F9008958F92C4
:1004D0009F92AF92BF92CF92DF92EF92FF92CF9313
:1004E000DF934B015C01EA0124E630E040E050E09C
:1004F0000E94BB030F2EFAE0CF2ED12CE12CF12C61
:10050000F02DA70196010E94BB03BE0180E3820F7C
:100510000E9402022196C501B401A70196010E9422
:10052000BB03862FBE01805D0E940202DF91CF9146
:10053000FF90EF90DF90CF90BF90AF909F908F9003
:100540000895EC01C12CD12C7601C394C701B601EA
:100550000E940D02672B682B692B29F0AE01C701A1
:10056000B6010E9467028FEFC81AD80AE80AF80A93
:10057000EDCF1F920F920FB60F921124C1E0D0E081
:1005800083B19E0102C0220F331F8A95E2F7C90191
:10059000892B11F40E94A00383B19E0102C0220F97
:1005A000331F8A95E2F72130310551F70E94A003ED
:1005B000E7CF0E94570060E070E081EA92E00E947D
:1005C0001C0383E090E00E94A102DC0115961C92BE
:1005D0001E921497DB01ED91FC911197309721F455
:1005E0008D939C930895F90124813581211531055E
:1005F000D1F7958384830895CF93DF9300D0CDB74F
:10060000DEB79A838983809100019091010106965B
:100610000E940204892B59F489819A8190930101E7
:100620008093000161E070E006960E9422040F9022
:100630000F90DF91CF910895CF93DF9300D0CDB786
:10064000DEB7F8942091040130910501232BE1F4E9
:1006500026EE31E030937E0120937D0123E532E0E8
:100660003093EB012093EA0120EC32E03093580202
:10067000209357021092C5021092C40221E030E08C
:100680003093050120930401209102013091030170
:100690003A832983232BA9F0E981FA81448155818A
:1006A000509303014093020191838083738362839B
:1006B00015821482CF0106960E940204019749F523
:1006C00001C0FFCF7894A0910001B0910101ED919C
:1006D000FC91119712968D919C9113970995F8941E
:1006E00062E071E080910001909101010E94E502B9
:1006F0008091060190910701009751F0FC0124813F
:10070000358130930701209306010E94FC0201C04D
:10071000FFCFE981FA81369689819A8187599F4F67
:10072000918B808B938B828B66E071E089819A81BB
:100730000E94E50278940F900F90DF91CF91089579
:10074000F89466E071E080910001909101010E94AF
:10075000E5028091060190910701009759F0FC0194
:100760002481358130930701209306010E94FC0209
:1007700078940895FFCF052E97FB1EF400940E94F5
:10078000D20357FD07D00E94E00307FC03D04EF4CC
:100790000C94D20350954095309521953F4F4F4F83
:1007A0005F4F089590958095709561957F4F8F4F1D
:1007B0009F4F0895EE0FFF1F0590F491E02D0994CF
:1007C000A1E21A2EAA1BBB1BFD010DC0AA1FBB1F55
:1007D000EE1FFF1FA217B307E407F50720F0A21BC7
:1007E000B30BE40BF50B661F771F881F991F1A9434
:1007F00069F760957095809590959B01AC01BD015E
:10080000CF010895DC012D923D924D925D926D9243
:100810007D928D929D92AD92BD92CD92DD92ED92A0
:10082000FD920D931D93CD93DD93FF91EF918DB7C5
:100830008D938EB78D938FB78D93ED93FD9388270E
:1008400099270994DC01CB0181309105811D2D9000
:100850003D904D905D906D907D908D909D90AD9070
:10086000BD90CD90DD90ED90FD900D911D91CD91BD
:10087000DD91ED91FD910D90F894FEBF0FBEEDBF9F
:0A088000ED91FD910994F894FFCF6B
:04088A000C017901E3
:00000001FF
