:100000000C9438000C9455000C9455000C94C702C5
:100010000C9455000C9455000C9455000C9455000C
:100020000C9455000C9455000C9455000C945500FC
:100030000C9455000C9455000C9455000C945500EC
:100040000C9455000C9455000C9455000C945500DC
:100050000C9455000C9455000C94550078008300C6
:100060008D009800A300AE00BA00C600D000DC00EE
:1000700011241FBECFEFD4E0DEBFCDBF11E0A0E062
:10008000B1E0E0E6F9E002C005900D92A430B107BE
:10009000D9F723E0A4E0B1E001C01D92A333B20779
:1000A000E1F70E94F5020C94AE040C940000E1E626
:1000B000F0E080E88083108297EB9093E50097E072
:1000C0009093E60090EC9093E4009FE09093E7001B
:1000D00094E09093810085B9089590E0FC01F09739
:1000E000EA30F10508F073C0E25DFF4F0C9445045F
:1000F00081E080930E0195E09093110190930F01A0
:1001000080931001089510920E0181E080931101F7
:1001100080930F0110921001089581E080930E01E9
:10012000809311019EE090930F0180931001089538
:1001300081E080930E01809311019BE090930F0169
:1001400080931001089510920E0185E080931101B3
:100150008BE080930F0110921001089581E080934D
:100160000E0194E0909311019BE090930F01809316
:100170001001089581E080930E0194E090931101A5
:100180009FE090930F0180931001089581E0809388
:100190000E018093110180930F01109210010895B8
:1001A00081E080930E0195E0909311019FE0909380
:1001B0000F0180931001089581E080930E0195E076
:1001C000909311019BE090930F018093100108958B
:1001D0008230910509F466C02CF4009769F001970C
:1001E00061F108958430910509F4B2C00CF47BC02C
:1001F000059709F4CEC00895ECEEF0E08081807F91
:1002000090910E01892B8083E1EFF0E08081807F67
:1002100090911101892B8083E6EFF0E08081807F4F
:1002200090910F01892B8083EBEFF0E08081807F3C
:1002300090911001892B80830895ECEEF0E02081ED
:1002400090910E0130E1939FC0011124922F9F7075
:10025000892B8083E1EFF0E020819091110130E162
:10026000939FC0011124922F9F70892B8083E6EF0A
:10027000F0E0208190910F0130E1939FC0011124A3
:10028000922F9F70892B8083EBEFF0E0208190917B
:10029000100130E1939FC0011124922F9F70892B90
:1002A00080830895EDEEF0E08081807F90910E01D3
:1002B000892B8083E2EFF0E08081807F90911101B3
:1002C000892B8083E7EFF0E08081807F90910F01A0
:1002D000892B8083ECEFF0E08081807F909110018A
:1002E000892B80830895EDEEF0E0208190910E013E
:1002F00030E1939FC0011124922F9F70892B80833E
:10030000E2EFF0E020819091110130E1939FC00174
:100310001124922F9F70892B8083E7EFF0E02081DA
:1003200090910F0130E1939FC0011124922F9F7093
:10033000892B8083ECEFF0E020819091100130E177
:10034000939FC0011124922F9F70892B8083089561
:10035000EEEEF0E08081807F90910E01892B80830A
:10036000E3EFF0E08081807F90911101892B808301
:10037000E8EFF0E08081807F90910F01892B8083EE
:10038000EDEFF0E08081807F90911001892B8083D8
:100390000895EEEEF0E0208190910E0130E1939F00
:1003A000C0011124922F9F70892B8083E3EFF0E02E
:1003B00020819091110130E1939FC0011124922F6F
:1003C0009F70892B8083E8EFF0E0208190910F01EE
:1003D00030E1939FC0011124922F9F70892B80835D
:1003E000EDEFF0E020819091100130E1939FC0018A
:1003F0001124922F9F70892B80830895CF93DF93D0
:10040000EB010E946D00CE010E94E800DF91CF91C8
:1004100008958F929F92AF92BF92CF92DF92EF9208
:10042000FF924B015C0183E088169104A104B104A2
:10043000ACF1D501C40181709927AA27B078BB23FC
:1004400054F40197A109B1098E6F9F6FAF6FBF6F11
:100450000196A11DB11D892B8A2B8B2B21F1C12C5B
:10046000D12C76016894C1F80AC0C501B401A70176
:1004700096010E942604672B682B692BC1F08FEF31
:10048000C81AD80AE80AF80AC814D904EA04FB040E
:1004900061F761E070E080E090E00CC061E070E046
:1004A00080E090E007C060E070E0CB0103C060E056
:1004B00070E0CB01FF90EF90DF90CF90BF90AF90B6
:1004C0009F908F900895CF92DF92EF92FF92CF93FB
:1004D000DF936B017C01EA0184E091E00E94DA0382
:1004E000D0930D01C0930C01C701B60124E630E0A2
:1004F00040E050E00E9426042AE030E040E050E076
:100500000E942604BE0180E3820F0E94FE0180E06B
:1005100090E00196883E23E09207D9F7C0910C0144
:10052000D0910D012196D0930D01C0930C01C7010C
:10053000B6012AE030E040E050E00E942604862F19
:10054000BE01805D0E94FE0184E091E00E940104F2
:10055000DF91CF91FF90EF90DF90CF900895EC0165
:10056000C12CD12C7601C394C701B6010E940902A7
:10057000672B682B692B29F0AE01C701B6010E94D9
:1005800063028FEFC81AD80AE80AF80AEDCF1F9263
:100590000F920FB60F9211242F933F934F935F93B7
:1005A0006F937F938F939F93AF93BF93EF93FF933B
:1005B00023B181E090E002C0880F991F2A95E2F7ED
:1005C000892B11F40E94C103FF91EF91BF91AF916C
:1005D0009F918F917F916F915F914F913F912F915B
:1005E0000F900FBE0F901F9018950E94570060E06B
:1005F00070E08FEA92E00E94380383E090E00E946E
:10060000AF02DC0115961C921E921497DB01ED914E
:10061000FC911197309721F48D939C930895F901E3
:100620002481358121153105D1F79583848308957F
:10063000CF93DF9300D0CDB7DEB79A8389838091C3
:1006400000019091010106960E946D04892B59F4D6
:1006500089819A81909301018093000161E070E0AB
:1006600006960E948D040F900F90DF91CF91089510
:10067000CF93DF9300D0CDB7DEB7F8942091080177
:1006800030910901232B09F52CEE31E030938401E0
:100690002093830129E532E03093F1012093F001AA
:1006A00026EC32E030935E0220935D021092CB0282
:1006B0001092CA0220E82DBB20936C0024B921E0DF
:1006C00030E030930901209308012091020130911C
:1006D00003013A832983232BA9F0E981FA8144811C
:1006E000558150930301409302019183808373836A
:1006F000628315821482CF0106960E946D040197D1
:1007000049F501C0FFCF7894A0910001B09101019B
:10071000ED91FC91119712968D919C9113970995EB
:10072000F89462E071E080910001909101010E94D3
:10073000010380910A0190910B01009751F0FC0197
:100740002481358130930B0120930A010E94180304
:1007500001C0FFCFE981FA81369689819A81875954
:100760009F4F918B808B938B828B6AE071E08981A4
:100770009A810E94010378940F900F90DF91CF919E
:1007800008956AE071E080910001909101010E945A
:10079000010380910A0190910B01009751F0FC0137
:1007A0002481358130930B0120930A010E941803A4
:1007B0000895FFCFF894FC0120813181232B29F487
:1007C00021E030E0318320831AC0BC016E5F7F4F8F
:1007D00080910001909101010E94010380910A0122
:1007E00090910B01009751F0FC01248135813093E9
:1007F0000B0120930A010E94180301C0FFCF7894D7
:100800000895CF93DF93F894FC0122813381232B49
:10081000B1F0EC016AE071E080910001909101017A
:100820000E9401038A819B81009741F0FC01248191
:1008300035813B832A830E94180304C0FFCFFC014B
:10084000118210827894DF91CF910895052E97FB45
:100850001EF400940E943D0457FD07D00E944B04F3
:1008600007FC03D04EF40C943D0450954095309510
:1008700021953F4F4F4F5F4F08959095809570950C
:1008800061957F4F8F4F9F4F0895EE0FFF1F05908B
:10089000F491E02D0994A1E21A2EAA1BBB1BFD01C5
:1008A0000DC0AA1FBB1FEE1FFF1FA217B307E4074F
:1008B000F50720F0A21BB30BE40BF50B661F771FA7
:1008C000881F991F1A9469F7609570958095909587
:1008D0009B01AC01BD01CF010895DC012D923D9239
:1008E0004D925D926D927D928D929D92AD92BD9250
:1008F000CD92DD92ED92FD920D931D93CD93DD93FC
:10090000FF91EF918DB78D938EB78D938FB78D93A8
:10091000ED93FD93882799270994DC01CB01813061
:100920009105811D2D903D904D905D906D907D9035
:100930008D909D90AD90BD90CD90DD90ED90FD900F
:100940000D911D91CD91DD91ED91FD910D90F8945A
:10095000FEBF0FBEEDBFED91FD910994F894FFCF5E
:0409600012017F0100
:00000001FF
